:020000040002F8
:10600000C07E0020DD630200E5630200E76302005A
:10601000E9630200EB630200ED6302000000000090
:10602000000000000000000000000000EF6302001C
:10603000F163020000000000F3630200F563020058
:1060400051670200F76302005D6A0200F763020015
:10605000F7630200F763020039650200F76302008C
:10606000F7630200F7630200F7630200F7630200C0
:10607000F7630200F7630200F7630200F7630200B0
:10608000F7630200A9670200F7630200F7630200EA
:1060900079680200F76302007D680200F76302007E
:1060A000F7630200F7630200F7630200F763020080
:1060B000F7630200F7630200000000000000000028
:1060C000F7630200F7630200F7630200F763020060
:1060D000CD670200F7630200F7630200F763020076
:1060E000F7630200F7630200F7630200000000009C
:1060F00000000000F763020000000000F7630200E8
:10610000000000000000000000000000000000008F
:10611000000000000000000000000000000000007F
:10612000000000000000000000000000000000006F
:10613000000000000000000000000000000000005F
:10614000000000000000000000000000000000004F
:10615000000000000000000000000000000000003F
:10616000000000000000000000000000000000002F
:10617000000000000000000000000000000000001F
:10618000000000000000000000000000000000000F
:1061900000000000000000000000000000000000FF
:1061A00000000000000000000000000000000000EF
:1061B00000000000000000000000000000000000DF
:1061C00000000000000000000000000000000000CF
:1061D00000000000000000000000000000000000BF
:1061E00000000000000000000000000000000000AF
:1061F000000000000000000000000000000000009F
:10620000DFF80CD000F05AF9004800475988020026
:10621000C07E002000B583B002900091019244F24C
:10622000010071466A4600F0A3FE03B000BD000005
:1062300030B450E8012F93B2C48923448489A34227
:1062400028BF1B1B0489A34202BFBFF32F8F00206E
:1062500007E0C3EA020340E80134002CE9D14FF023
:1062600001000A6030BC704750E8012FC2EA0242C8
:1062700040E801210029F7D1704730B450E8022FDF
:106280001FFAA2F3C488A34202BFBFF32F8F0020DE
:106290000DE0C48923448489A34228BF1B1BC2EAA2
:1062A000034340E80234002CE8D14FF001000A60BB
:1062B00030BC704750E8022FC2EA224240E8022177
:1062C0000029F7D17047034653E8022FD988B2EB73
:1062D000324F4FF0000017BF92B241EA014142EA4B
:1062E000014104E05A68B2EB324F08BF012043E895
:1062F0000212002AE8D1704730B4044654E8000F77
:106300000D4644E80053002BF8D1156030BC7047AF
:1063100030B4044654E8000F40EA010544E8005355
:10632000002BF7D1156030BC704730B4044654E8F8
:10633000000F00EA010544E80053002BF7D1156077
:1063400030BC704730B4044654E8000F80EA0105C1
:1063500044E80053002BF7D1156030BC704730B4CF
:10636000044654E8000F00EB010544E80053002BFD
:10637000F7D1156030BC704730B4044654E8000FC4
:10638000A0EB010544E80053002BF7D1156030BCA9
:10639000704770B404464FF0000054E8006F0D6879
:1063A000AE4207BF44E80023012044E800630E60CA
:1063B000002B1CBF0020F0E770BC704730B40446CF
:1063C00054E8000F88422CBF451A054644E80053A4
:1063D000002BF5D1156030BC70470000064880479F
:1063E00006480047FEE7FEE7FEE7FEE7FEE7FEE7BA
:1063F000FEE7FEE7FEE7FEE78168020001620200B9
:10640000202A04DB203A00FA02F100207047914074
:10641000C2F1200320FA03F319439040704740EA89
:1064200001039B0703D009E008C9121F08C0042A12
:10643000FAD203E011F8013B00F8013B521EF9D2F9
:106440007047D2B201E000F8012B491EFBD2704721
:106450000022F6E710B513460A4604461946FFF730
:10646000F0FF204610BD421C10F8011B0029FBD193
:10647000801A704730B504460020034600E05B1CDC
:10648000934203D2E05CCD5C401BF8D030BD30B508
:106490000B46014600202022012409E021FA02F5E2
:1064A0009D4205D303FA02F5491B04FA02F528447C
:1064B000151EA2F10102F1DC30BD0000064C074DB3
:1064C00006E0E06840F0010394E8070098471034C4
:1064D000AC42F6D3FFF798FE80AD0200A0AD0200FB
:1064E00070B58C1810F8015B15F0070301D110F896
:1064F000013B2A1106D110F8012B03E010F8016BC3
:1065000001F8016B5B1EF9D12B0705D40023521E45
:106510000DD401F8013BFAE710F8013BCB1A921CAD
:1065200003E013F8015B01F8015B521EF9D5A142AB
:10653000D8D3002070BD00002DE9F04F00268DB0AB
:10654000DFF8A081B14604964FF4807501243746E8
:106550000596284602F0CEFD38B1D8F80403204253
:1065600003D0284602F0BCFD26432D1D64007F1C8D
:10657000ADB2082FEDD34FF4BE74204602F0BAFD41
:1065800048B1204602F0ACFD46F0004604AA0221C4
:10659000002002F08FFD544C16F0FF0F15D001279C
:1065A000002537420DD008EB8501D1F81005D1F850
:1065B0001015C0F3052054F82520C1F3014102B1A4
:1065C00090477F006D1C082DEBD3002E7EDA002053
:1065D000CDF82890411E0DF1100B07AACDF82C9094
:1065E00042F82010401C91460228F9D300252E467F
:1065F000A11911F8607F91F9000027F0C008401C34
:1066000040D007A9404602F019FA40B34FEA971A62
:10661000404601F0B3FB54F820701FB1BAF1030FEC
:1066200003D006E0BAF1030F2CD10AA9404602F0CC
:106630000DFA02A8CDF8088002F0D6FC029900EB12
:106640008100D0F8000704A9C0F301400290404641
:1066500002F0F4F90028029802D0022802D011E0DA
:1066600003280FD1BAF1030F08D10298022833D0C2
:106670000221404602F07AFC6D1CEDB217B1514682
:106680004046B847761C042EB2D3002D21D001AA73
:106690000221002002F00EFD00205A460DF10401F7
:1066A00052F8206051F82030B34217D000200AAED3
:1066B0004FEA090351F8207042F8207056F8207014
:1066C00043F82070401C0228F4D300E001E0002DC4
:1066D0008CD10DB0BDE8F08F0321CAE7401C022821
:1066E000DED3F6E700600040CC5B002000F01F0224
:1066F000012191404009800000F1E020C0F88012A3
:10670000704700F01F02012191404009800000F114
:10671000E020C0F80011704700F01F0201219140F5
:106720004009800000F1E020C0F8001270474907DE
:10673000090E002806DA00F00F0000F1E02080F8D2
:10674000141D704700F1E02080F80014704700002D
:1067500070B54FF48076304602F06CFA114CB505F6
:1067600060B1304602F06DFA0120C5F80803607987
:1067700020B9012060712168002088474FF482769B
:10678000304602F057FA00280AD0304602F059FA93
:106790000220C5F808032168BDE8704001200847C1
:1067A00070BD00007853002007480021C0F8401158
:1067B000C0F84411C0F84811C0F84C11C0F80011DD
:1067C000C0F8041103F074BF00100140042200213E
:1067D000014801F031BF000000400240054910B5FA
:1067E00008600121044803F065F8BDE81040024844
:1067F00003F00EB84053002070AB0200014800685F
:1068000070470000405300201CB50B490B4AD1E9EA
:106810000001CDE9000140F6FF70ADF80000064828
:106820006946083003F000F8002803D004A22921AB
:10683000FFF7F0FC1CBD000068AB0200C9A202001B
:106840002E2E5C2E2E5C2E2E5C2E2E5C2E2E5C2E82
:106850002E5C636F6D706F6E656E74735C6C6962D5
:106860007261726965735C7274635C626F61726499
:106870005F7274632E63000003F068BE02F096BD81
:1068800030B54FF0805000228300D0F83011C3F8AB
:106890000C21C3F81021624B1A60624B1B68624CDA
:1068A0002360604B1B1D1B68241D23605D4B083358
:1068B0001B68241D23605B4B0C331B68241D236065
:1068C000584B10331B68241D2360564B14331B6830
:1068D000241D2360534B18331B68534C2034236012
:1068E000504B1C331B68241D23604E4B20331B6808
:1068F000241D23604B4B24331B68241D2360494B0C
:1069000028331B68241D2360464B2C331B68241D31
:106910002360444B30331B68434C40342360414B6D
:1069200034331B68241D23603E4B38331B68241D01
:1069300023603C4B3C331B68241D2360394B4033A0
:106940001B68241D23600123082902D1D0F834419B
:1069500014B1082904D006E0354C3449216005E023
:10696000D0F8344114B1082904D006E0314CFB21A1
:10697000216005E0D0F8344114B1082908D00EE0B8
:1069800090F858422C48016864F30301016002E06A
:10699000D0F834411CB929494FF4007008602848E8
:1069A0000168C90702D06FF0010101602548016844
:1069B00041F470010160BFF34F8FBFF36F8F4FF051
:1069C0001021D1F80002002803DBD1F804020028CE
:1069D00022DA1D4C23601D480368002BFCD01223D3
:1069E000C1F800320568002DFCD0C1F804320168FE
:1069F0000029FCD0226001680029FCD0BFF34F8F32
:106A000010487C380168124A01F4E06111430160CA
:106A1000BFF34F8F00BFFDE70F490E48086030BD40
:106A2000380500400404001020C5004048810300E0
:106A30008C56004018F50040E40E0040409602409D
:106A40000004004088ED00E004E5014000E401405E
:106A50000400FA050090D003F853002001480068B4
:106A600000470000805300200FB4054B10B503A968
:106A7000044A029800F03EF810BC5DF814FB0000D8
:106A800027850200D45300200FB4084B10B504A989
:106A900002AA039800F02EF8044602A9002000F094
:106AA000CAF9204610BC5DF814FB0000376E0200E6
:106AB00002E008C8121F08C1002AFAD170477047C7
:106AC000002001E001C1121F002AFBD17047000025
:106AD0000121202803DA81400548014003E04028D5
:106AE00002DA2038814009B1012070470020704748
:106AF000FC06FFBD2DE9FF4F8BB0884605460026FA
:106B000006E025280BD0DDE90D1290476D1C761CA0
:106B100028780028F5D10FB03046BDE8F08F00246A
:106B2000A146A2460122AE4900E0044315F8013F08
:106B3000203B02FA03F00842F7D128782A2810D027
:106B40006FF02F022878A0F13001092915D809EB40
:106B5000890102EB410144F0020400EB01096D1CC4
:106B6000F0E758F8041B5FEA010903D544F4005428
:106B7000C9F1000944F002046D1C28782E2817D1B1
:106B800015F8010F44F004042A280ED06FF02F02EC
:106B90002878A0F1300109290AD80AEB8A0102EB12
:106BA000410100EB010A6D1CF2E758F804AB6D1CC3
:106BB00028786C280FD006DC4C2817D068280DD018
:106BC0006A2814D104E0742810D07A280FD10DE07F
:106BD00044F400140AE044F4801401E044F4401446
:106BE0006978814202D104F580146D1C6D1C2878EF
:106BF000692865D006DC00288DD0632827D064285A
:106C000006D15DE06E2808D073282AD0752877D089
:106C1000DDE90D129047761CE0E0C4F30250022833
:106C200009D003280DD0D8F8001004280DD00E602C
:106C300008F10408D2E0D8F80010F217C1E90062A8
:106C4000F6E7D8F800100E80F2E70E70F0E718F8BB
:106C5000041B8DF8001000208DF80100EB46012088
:106C600003E058F804BB4FF0FF3061074FF0000716
:106C700001D40AE07F1C57450DDA8742FADB1BF886
:106C800007100029F6D106E07F1C8742FCDB1BF8C9
:106C900007100029F8D1DDE90D23A9EB0700814693
:106CA000214600F0B1F83044C61904E0DDE90D12C8
:106CB0001BF8010B90477F1EF8D22146484688E01A
:106CC00058F8040BC4F302514FF00A0B032900D10A
:106CD00000B2042900D140B2002802DA40422D213E
:106CE00002E0210505D52B218DF82410012104E0B7
:106CF00006E0E10710D02021F6E708AF089113E085
:106D000058F8040BC4F302514FF00A0B032900D1C9
:106D100080B2042900D1C0B20021EEE75946FFF746
:106D2000B6FB303107F8011D0028F7D1ADEB0700A5
:106D300000F1200B600702D524F4803401E04FF00D
:106D4000010ADA4502DDAAEB0B0000E000208246D2
:106D500000EB0B0108980144A9EB01000A90E00345
:106D600006D4DDE90D2321460A9800F04DF80644CB
:106D70004FF0000908E009A911F80900DDE90D123A
:106D8000904709F10109761C08998945F3DBE00376
:106D90000CD5DDE90D2321460A9800F035F80644AC
:106DA00004E0DDE90D1230209047761CBAF10001B5
:106DB000AAF1010AF5DC05E0DDE90D1217F8010B77
:106DC0009047761CBBF10001ABF1010BF4DC0A9893
:106DD0002146DDE90D2300F005F806446D1C97E619
:106DE000092801002DE9F041044600251E461746FA
:106DF000880404D405E039462020B0476D1C641E89
:106E0000F9D52846BDE8F0812DE9F041044600257A
:106E10001E469046C80301D5302700E0202788048D
:106E200004D505E041463846B0476D1C641EF9D5CF
:106E30002846BDE8F0810A68531C0B60107070474B
:106E400031B500252C462146684601F0D6FD00B13B
:106E50006D1C641C142CF6D3284638BD10B50122D5
:106E60000221002000F022FF08B1072818D10722D4
:106E70000221012000F01AFF08B1072810D10021DB
:106E80000A22084600F012FF08B1072808D10B2299
:106E90000121002000F00AFF08B1072800D10020DE
:106EA00010BD000070B50024084D05E0686810F8BA
:106EB000340002F061FB641C28788442F6D3044855
:106EC0004068BDE8704000F039B9000090530020E0
:106ED00040AC020070B50024064D06E06868012150
:106EE00010F8340002F06CFB641C28788442F5D35F
:106EF000002070BD90530020F8B515460C4606469C
:106F0000052A01D20720F8BD02F052FC18B902F0A0
:106F100015FC0028F7D1124900224E600C708D60DC
:106F2000C1E90422C1E906220E4D0DE006EBC400C2
:106F30002968009181788DF8011000780A4A694625
:106F400002F08AFB0028DED1641EE4B2EED2BDE876
:106F5000F84004480021054A001D00F06FB8000009
:106F60009053002040AC020035850200BD7F020036
:106F700030B472B6034B1B68DB0700D000BE30BCD8
:106F800000F002B8F0ED00E008B501238DF8003004
:106F90009DF80030144B186059609A606FF480417E
:106FA000401807D001280FD1DA60D86800889861AE
:106FB000D86807E01A611869806858611869006824
:106FC000986118694068D861186858689868D868E6
:106FD000186958699869D86972B600BF9DF80000B1
:106FE0000028FBD162B608BDA85C002010B58268FD
:106FF000C368934203D001F083FA002010BD05203E
:1070000010BD29B112B1531E134203D0092070479D
:107010000E2070470160838000218160C1600846B6
:10702000704710B58268C3689A1A83889A4203D859
:1070300001F070FA002010BD042010BD074B9B78B2
:1070400023B12AB120B10068037C1BB1082070472E
:10705000072070474174426100207047C85C0020DF
:1070600070B503F013F9104800240B21047044702C
:107070000E4D817014206C602C706C70FFF736FB25
:1070800007211420FFF753FB1420FFF73AFB0848B1
:10709000046007211120FFF74AFB0548001F006824
:1070A000A860002070BD0000C85C0020B053002024
:1070B000081501402DE9FC47DFF8789099F8023077
:1070C00073B368B3052902D20720BDE8FC87436982
:1070D00033B3437C012B25D0002704460025884686
:1070E00016468DF80050684600F0EEF801A803F04F
:1070F0000BFDC8B1012101700F4944600968C0E966
:107100000218C0E904769DF8040089F801009DF892
:10711000000000F0FDF81420FFF7FEFA2846D4E73F
:107120000820D2E70F46D8E704259DF8000000F0BC
:10713000EFF8F3E7C85C00200415014006498978A0
:1071400039B130B1416921B100210174022103F04C
:107150008BBA082070470000C85C002070B50B4E49
:1071600001460B48B578FFF741FF04465DB10020AA
:10717000B070711C0122C81D01F0D4FD18B105A228
:10718000CE21FFF747F8204670BD0000D8530020FD
:107190009C5E00202E2E5C2E2E5C2E2E5C2E2E5CF5
:1071A0002E2E5C2E2E5C636F6D706F6E656E747329
:1071B0005C6C69627261726965735C756172745C42
:1071C0006170705F756172745F6669666F2E6300CF
:1071D000F0B5244E89B01F460D00044672603FD0C2
:1071E000A888296882B22048FFF70BFF002835D114
:1071F000A889A96882B21C481030FFF702FF002856
:107200002CD1202219496846FFF709F960690690D8
:10721000207C00B101208DF814008DF81C70607C7A
:1072200000B10E208DF81500E0680290A068039070
:1072300020680190606800900A480D4A694608304D
:1072400001F03CFD002809D1B0702068401C05D039
:1072500004490122491CC81D01F064FD09B0F0BDBC
:107260000720FBE7D85300209C5E00208CAC020076
:10727000EDA7020010B501461048FFF7D2FE04004A
:1072800019D10F480F4A0178515C19B1001D02F065
:1072900075FD02E00C3002F059FC60B9084907485E
:1072A0000839FFF7A3FE30B905490122083904481F
:1072B00001F048FD0446204610BD0000AC5E0020F1
:1072C000E05300206453002030B5EFF3108172B614
:1072D0000D4A9468012324B10370002900D162B6DD
:1072E00030BD93604FF0E023D3F88051074C254028
:1072F0001560C3F88041D3F8844154605A17C3F82D
:10730000842100220270E8E7D45D0020FC06FFBD66
:107310000B498A68002A11D000280FD1EFF31080A2
:1073200072B60B684FF0E022C2F800314B68C2F829
:10733000043100228A60002800D162B67047000044
:10734000D45D002070B5054608680C46411C04D089
:1073500001F089FE206801F0F5FD6068411C02D053
:10736000002101F0D1FD2968A069C1F82405607DE4
:10737000227D29681043C1F86C05D4E90012286801
:10738000C0F81425C0F80C15207D012814D1A06880
:10739000411C02D0002101F0B7FDE068411C04D07F
:1073A00001F061FEE06801F0CDFDD4E90212286829
:1073B000C0F80825C0F8101570BD70B505460868FE
:1073C0000C46411C04D001F058FE206801F0C4FDB9
:1073D0006068411C02D0002101F09FFD2968A0696E
:1073E000C1F82405607D217D2A680843C2F86C0538
:1073F000D4E900122868C0F80C15C0F81425207DC7
:10740000012814D1A068411C02D0002101F085FDA3
:10741000E068411C04D001F030FEE06801F09CFD02
:10742000D4E902122868C0F80825C0F8101570BD0C
:1074300078210148FFF70CB888570020F8B50646B8
:107440004FF000001500ADF8000015D009236A4682
:10745000304600F015F80446BDF80000064458B167
:1074600054B12846FEF7FFFFA04205D1224631461F
:107470002846FEF7FFFF08B10020F8BD0120F8BD47
:1074800070B588B182B10024158803E0065D641CE4
:107490003444A4B2A54203D8061976789E4201D09E
:1074A0008C42F3D38C4201D3002070BDA11C11800B
:1074B000005D401E80B270BD054808B5C1680091EE
:1074C0008168684601F0AEFA0098FFF7B9FC08BD84
:1074D00088570020FFF7ACBF70B540B10C4D29783C
:1074E00039B1044602F0B6FE28B1002070BD0E206E
:1074F00070BD082070BDE868062807D205492268DB
:1075000001EB8001401C0A60E860EEE7042070BDDA
:107510004C5300200058002040B1054900220123AF
:10752000CA600B70C1E90102104670470E20704717
:107530004C53002070B504002DD000292BD02048DA
:107540000078002827D020880D46112815D0302833
:1075500004D0322807D033281ED109E0211D284647
:1075600002F086FD18E0211D284602F07FFC13E0A2
:10757000211D284602F004FD0EE0A088B5F8CA12CD
:10758000884209D1002085F8C70285F8C8024FF665
:10759000FF70A5F8CA0270BD95F8C8020028FAD09D
:1075A00020883028F7D34F28F5D8A088B5F8CA121C
:1075B0008842F0D12846BDE8704000F0D5BD0000FB
:1075C0004C53002048B1084A137843B1D26832B115
:1075D00090F8C7222AB1112070470E20704708206A
:1075E000704700F0C1BD00004C5300202DE9F84366
:1075F0000188041D0026784D1F296ED00CDC10294F
:1076000022D011296AD01B2969D01D2967D1201DDC
:10761000BDE8F84302F0C0BB21297CD03B297BD0D8
:1076200056295CD18088132176DF0746208800F038
:1076300011FD20882E54380051D068A24FF41F71DC
:10764000BDE8F843FEF7E6BD2088042805D363A211
:107650004FF4F5710020FEF7DDFD2188634F002215
:1076600007EB011000F0D2F95B4981461C39012675
:10767000486901F1180830B1012812D002281ED043
:1076800003282DD039E02288594807EB0212906078
:10769000208808702E54042001F080FC88F80060D7
:1076A0002BE02188534807EB0111886021880220D4
:1076B0006854052001F072FC88F801601DE0218803
:1076C0004D4807EB0111886021880320685406208B
:1076D00001F064FC88F802600FE057E03CE069E0EC
:1076E0002188464807EB01118860218804206854EE
:1076F000072001F053FC88F803605FEA090004D01A
:1077000036A240F21221FEF785FD2188B320324ACD
:1077100048430C3201E042E04EE002EB8000FFF70C
:1077200051FF112805D020B12CA24FF40671FEF7AD
:1077300071FD012000F0A8FAFFF7BEFE04284FF00B
:10774000000005D000F0A0FABDE8F84302F008BE42
:10775000BDE8F84300F090BA208800F07BFC208858
:107760002E54FFF7A9FE50B9FFF79CFB20B11BA2D6
:1077700040F23921FEF74EFD012000F07DFA02F0C3
:10778000EFFDBDE8F843002000F07EBA2088211DFF
:1077900075DF00280ED011A240F25A2150E7009662
:1077A000808869468FDF002804D00CA240F2662151
:1077B000FEF730FDBDE8F8838088132176DF0746A9
:1077C000208800F047FC20882E543800F2D003A215
:1077D00040F2712134E70000F44700202E2E5C2E89
:1077E0002E5C2E2E5C6D61696E2E63001C5700208E
:1077F00005820200AD82020055830200018402006E
:1078000010B51A4C0188606810290ED011292BD1AF
:10781000401E606028D1FFF721FB002824D021689A
:10782000002921D0BDE810400847D0B9002101222D
:10783000084600F03BFA08B107280FD107220221C1
:10784000012000F033FA08B1072807D104220221F1
:10785000002000F02BFA20B1072802D0216801B1E6
:1078600088476068401C606010BD000044530020E1
:107870002DE9F04F0746858802883E48012197B0E0
:107880008346102A09D0112A4BD01A2A6ED1387A91
:10789000B1EB101F47D2012246E0364C083CA068ED
:1078A000C0430B9061680BA801F0BCF80B990CA8C1
:1078B00000F006FB2C220CA96846FEF7B0FD00265E
:1078C000E946A04610E000BF09EB46005FF0000467
:1078D000B0F804A008EB84005146001D01F082F8C6
:1078E000641C1D2CF6D3761C0098B042ECD8142DE5
:1078F00007D317B0E321BDE8F04F1FA20420FEF725
:1079000089BC2946584601F083F8294608F104004D
:1079100001F07EF8F87B012828D016482946001D82
:1079200015E029461AE000220221B1EB101F01D216
:10793000012600E000260F49083901F11000041D5E
:10794000294682B101F064F836B12946204617B0C5
:10795000BDE8F04F01F05CB82946204617B0BDE8FD
:10796000F04F01F03FB801F03DF8F5E717B0BDE882
:10797000F08F0000905700202E2E5C2E2E5C2E2EB5
:107980005C2E2E5C2E2E5C2E2E5C636F6D706F6EE7
:10799000656E74735C626C655C636F6D6D6F6E5C5D
:1079A000626C655F636F6E6E5F73746174652E6386
:1079B0000000000070B518B30288A2F57F41FF39BE
:1079C0001CD0104C4388104D206800EB8001401CF7
:1079D00000F00700206005EB810102204B81C88187
:1079E000081D086100248C810120087208714C7107
:1079F0000A80887002F096FE204670BD082070BD97
:107A00000E2070BD5C530020185B002040B1018047
:107A100022B11168C0F802109188C180002070471F
:107A20000E20704730B5134D040085B02DCD8DE884
:107A30002D001DD0E1B10868D0B100206080A08089
:107A4000E0804FF6FF7020800868A06004F10C0110
:107A5000684662DF002809D1207B8DF8120041F2D0
:107A60002350ADF8100004A8FFF736FD05B030BD77
:107A70000E20FBE714AC020000B585B0002924D02D
:107A8000002822D00288112A2AD0382A1FD0392A69
:107A90001BD10A4609888388994216D14189938867
:107AA000994212D102218DF800101188ADF8021010
:107AB000017C8DF8041000F110010391C089ADF82C
:107AC0001000936869461046984705B000BD0988C4
:107AD00080888142F9D105B05DF804EB02F022BE46
:107AE0000A8880888242F0D14FF6FF70088000201B
:107AF00048808880C880E8E770B518B30288A2F58E
:107B00007F43FF3B1CD0104C104D236803EB8302D6
:107B10005B1C03F00703236005EB8202C3885381DB
:107B20000123D381141D1461002494810224147252
:107B3000117100881080937002F0F4FD002070BD78
:107B4000082070BD0E2070BD5C530020185B002023
:107B500010B50A7886B0002A3FD18A88A2F5A853CA
:107B6000233B3AD18A79037B9A4236D101228DF8A0
:107B700000204A88ADF80220002217E002EBC20381
:107B800001EB430333F80E4F04F6DC24B4F5005444
:107B900005D0012C09D11B89ADF8083005E01C89FE
:107BA000ADF806405B89ADF80430521C0B7A934265
:107BB000E4D80188A1F57F42FF3A0BD0C18849B9CA
:107BC000818839B9418829B90199C0F80210BDF8F6
:107BD0000810C18082686946904706B010BD000059
:107BE00008B501F0A9FB20B10D4A40F29F21FEF734
:107BF00011FB002000906946012001F0C9FA20B174
:107C0000074A40F2A521FEF705FB684601F010FB8C
:107C1000002804D0024A40F2A921FEF7FBFA08BD71
:107C2000708902002DE9FC410646C0074FF00005AF
:107C30000ED0104F00240122385D0095002311461C
:107C4000019501F0FDF8641C042CF4D300F024F835
:107C5000B0070DD5074E0024361D0022305D0323EA
:107C600000951146019501F0EBF8641C042CF4D347
:107C7000BDE8FC8178AB02000249085C012101F0FB
:107C800006BA000078AB02000249085C002101F04E
:107C9000FEB9000078AB020010B500242046FFF7C3
:107CA000EBFF641C042CF9D310BD000070B5002359
:107CB000042810D20D4D00EB4004012A02D1012905
:107CC0000CD00022094E00EB4000304461B1012984
:107CD00006D0022906D00723184670BD0E30C2B266
:107CE0002A55F9E74270F7E78270F5E77B570020E5
:107CF0000B2806D00C2804D003A240F2F521FEF791
:107D000089BA084600F010BD2E2E5C2E2E5C2E2E59
:107D10005C6D61696E2E630005494FF0FF320828E3
:107D200041F8202002D3084480F858207047000012
:107D3000CC5B0020F0B54FF0FF3512B100230826D0
:107D400001E008230C260C4C05E000BF54F823701A
:107D50007F1C04D05B1CB342F8D32846F0BD261824
:107D60005DB286F8305044F82310002AF5D1E118AE
:107D700081F85800F1E70000CC5B0020024908447C
:107D800090F9300070470000CC5B002008B5024637
:107D900090F8C6020B4600EB8001C1EB801002EBAD
:107DA000400092F8C52242B1521ED2B202EBC2018B
:107DB00000EB4102518A491C00E0C188ADF8001077
:107DC0000089ADF80200694618469DDF08BD000035
:107DD00070B5084C050009D010342168002907D07F
:107DE00008682060496828468847F6E70834F4E7C1
:107DF00070BD0000B85B0020054A012120B10128B8
:107E000005D19170FFF7E4BF51700020FAE7704789
:107E1000B85B00202DE9F05F26484168F1B3DFF838
:107E200098B00E688146DBF8004087688078E11BD7
:107E300021F07F45ED1CB0B9DFF880804FF4803031
:107E4000C8F84403C8F804031120FEF74FFC1120C2
:107E5000FEF757FC4FF0010AC8F800A02F2001F0F0
:107E600083FB89F802A0B54200D23546124BE819CF
:107E70003C3320F07F401860DBF800105A46091BA5
:107E800021F07F41001B20F07F40C91C81420FD9A7
:107E9000106818602F2001F067FB00E004E0BDE8E7
:107EA000F05F1120FEF738BCBDE8F05F02F0EEB9DC
:107EB000BDE8F09FB05300200415014000100140C0
:107EC00073B58CB00646002000900D9880B1002458
:107ED0006D4621460DA800F090FD30B1009805EBED
:107EE000400084800098401C0090641C142CF0D347
:107EF0002C2269463046FEF792FA0EB070BD1FB5CF
:107F000000220092ADF800100192ADF8021002922A
:107F1000039202AA694690DF04B010BD4188034A6B
:107F200002EB011201461046FFF712BE1C5700205B
:107F30002DE9F843054690F8C6020F4600EB800194
:107F4000C1EB801005EB400695F8C542914604EB65
:107F5000C40006EB40013279601C0A31904226D100
:107F60006B460022284600F0B7FB18B310E0401E15
:107F7000A04201D1002004E004EBC40006EB400065
:107F80001C30804602466B46284600F0A5FB30B107
:107F900000203870694648469EDFBDE8F88395F8B2
:107FA000C5024146401C641C85F8C502E4B2307924
:107FB000A042DCD8012038700020EEE72DE9F04720
:107FC0000025DFF88C803CE06068002100EBC506EE
:107FD000012032789146FEF713FAD4E9062300EA2D
:107FE000020701EA030C57EA0C0728D082438B43AF
:107FF0004846C4E9062301F099FB3278824691464F
:1080000001200021FEF7FCF9D4E9042300EA020470
:1080100001EA03074A4650460021FEF7F1F94440C1
:108020004F403C430BD17078012801D0012100E082
:108030000021726881EA0A010AB1484690476D1C26
:10804000EDB298F8000044468542BDD3BDE8F08704
:108050009053002070B5104900240D1F085C0128C2
:108060000AD002280DD0032810D0042803D10720FD
:1080700000F0EFFFEC7070BD042000F0EAFF2C7000
:1080800070BD052000F0E5FF6C7070BD062000F0AB
:10809000E0FFAC7070BD0000F44700202DE9F04710
:1080A000894690F8C612904601EB8102C2EB81111D
:1080B00000EB4107384602F0CDF806002FD0194CEE
:1080C000A06806282BD2184D762205EBC010394641
:1080D000A0F80280001DFEF7A2F90027B9F1000FF9
:1080E00004D0A06805EBC010077004E0A16802206E
:1080F00005EBC1110870A06805EBC011401CCE67EC
:10810000A060E16888420AD1002604E005EBC610B1
:10811000C16F8847761CE0688642F7D3A760BDE848
:10812000F08700004C5300201858002070B50E4610
:1081300090F8C612154601EB8102C2EB8111A0B086
:1081400000EB410002F086F8040009D07C220549CA
:108150006846FEF764F9ADF8025068460196A047FC
:1081600020B070BD80AB020070B50E4604464FF4DF
:108170003371FEF76DF911480025A4F8CA628560D5
:1081800084F8C9520E4884F8C65284F8C552006873
:1081900020602246012130469BDF0121112806D0B4
:1081A000002809D184F8C71284F8C85203E084F883
:1081B000C71284F8C812002070BD00004C53002084
:1081C000005800200E4910B50A784C780023A242CE
:1081D00012D0521CD2B20A70022A00D10B70084A87
:1081E0000B780C3252F8232002608868104420F08B
:1081F0007F408860012010BD0360002010BD00009A
:10820000B05300207CB5044608780D4601281DD0E7
:10821000022839D1FEF7F2FA1CA10246D1E9000189
:10822000CDE900011BA16846FEF72EFC00246E4636
:10823000305DFFF71FF8641C062CF9DB4120FFF7C7
:1082400019F83020FFF716F8002417E0FEF742FE79
:1082500018B112A2D421FDF7DDFF2046FFF7AAFBDB
:10826000002811D002B00DA2BDE87040D821FDF762
:10827000D1BFE868005DFEF7FDFF641C288AA042BC
:10828000F7DC0A20FEF7F6FF7CBD0000303030300E
:108290003030000025303664000000002E2E5C2EA9
:1082A0002E5C2E2E5C6D61696E2E63007CB50446DB
:1082B00008780D4601281DD0022839D1FEF79EFA14
:1082C0001CA10246D1E90001CDE900011BA16846CD
:1082D000FEF7DAFB00246E46305DFEF7CBFF641C30
:1082E000062CF9DB4120FEF7C5FF3120FEF7C2FF67
:1082F000002417E0FEF7EEFD18B112A2FA21FDF7F7
:1083000089FF2046FFF756FB002811D002B00DA2CE
:10831000BDE87040FE21FDF77DBFE868005DFEF717
:10832000A9FF641C288AA042F7DC0A20FEF7A2FFFE
:108330007CBD0000303030303030000025303664F5
:10834000000000002E2E5C2E2E5C2E2E5C6D6169CE
:108350006E2E63007CB5044608780D4601281DD0BA
:1083600002283BD1FEF74AFA1DA10246D1E90001DD
:10837000CDE900011CA16846FEF786FB00246E468D
:10838000305DFEF777FF641C062CF9DB4120FEF719
:1083900071FF3220FEF76EFF002419E0FEF79AFD10
:1083A00020B113A24FF49071FDF734FF2046FFF780
:1083B00001FB002812D002B00DA2BDE870404FF4BE
:1083C0009271FDF727BFE868005DFEF753FF641C5C
:1083D000288AA042F7DC0A20FEF74CFF7CBD000093
:1083E000303030303030000025303664000000007E
:1083F0002E2E5C2E2E5C2E2E5C6D61696E2E63001F
:108400007CB5044608780D4601281DD002283BD1D2
:10841000FEF7F4F91DA10246D1E90001CDE9000102
:108420001CA16846FEF730FB00246E46305DFEF767
:1084300021FF641C062CF9DB4120FEF71BFF3320D3
:10844000FEF718FF002419E0FEF744FD20B113A247
:1084500040F24711FDF7DEFE2046FFF7ABFA002899
:1084600012D002B00DA2BDE8704040F24B11FDF7F2
:10847000D1BEE868005DFEF7FDFE641C288AA042BC
:10848000F7DC0A20FEF7F6FE7CBD0000303030300D
:108490003030000025303664000000002E2E5C2EA7
:1084A0002E5C2E2E5C6D61696E2E630030B5044625
:1084B000006887B00D46806800281FD018216846E4
:1084C000FDF7C6FF0195A0680590207910B101283D
:1084D00010D107E001208DF8000020690290E068CB
:1084E000039005E002208DF80000E0680003029090
:1084F00060690490206881686846884707B030BD8D
:10850000826883881A4003689A5C0A708168491CF3
:1085100081607047C26883881A4003689954C168B3
:10852000491CC160704710B50446C0B2FEF7A2FEF8
:10853000204610BD2DE9F041804602460120002171
:10854000FDF75EFF1A4F05460E467868FEF7F6FD0A
:1085500000280CD1174CD4E9062110462A4001EA24
:1085600006031A4305D0A843B143C4E90601BDE898
:10857000F081404601F0DAF830B1D4E90401284333
:108580003143C4E9040105E0D4E90410A943B04330
:10859000C4E90410D4E9060128433143C4E90601C3
:1085A000A1687868BDE8F0410022FEF783BD0000B5
:1085B00040AC02009053002070B50D4604460068A0
:1085C0004FF4887100F095FF4FF49071206800F02F
:1085D00090FF4FF49271206800F08BFF4FF4A2716E
:1085E000206800F086FF20681249C0F80413206854
:1085F0006907000B40B2090E002806DA00F00F00F0
:1086000000F1E02080F8141D03E000F1E02080F884
:10861000001420680121000B40B200F01F029140BD
:108620004009800000F1E020C0F88012C0F800117D
:1086300070BD0000100302002DE9F0479146884606
:1086400004464FF480354FF4A0760027DFF884A06D
:1086500016E000BFD4F8040328420DD0A05958B149
:10866000C4F84853C4F808533146204600F080FD52
:108670005AF82810F8B28847361D6D00B6B27F1C34
:108680004F45E7D3D4F804034FF4807110F0010F85
:1086900009D0D4F8000130B1204600F069FD5AF845
:1086A000281004208847D4F804034FF4827110F096
:1086B000020F0CD0D4F80401002808D0204600F0A6
:1086C00057FD5AF82810BDE8F04705200847BDE8D7
:1086D000F08700008C53002010B509892AB1D0889A
:1086E000491C814218D1002010BD90F8C62202EB2F
:1086F0008204C4EB821200EB420212899142F2D052
:10870000491C198090F8C61201EB8102C2EB81115D
:1087100000EB4100008902E01980D088401E58809B
:10872000012010BD7047000010B501460548FFF755
:10873000E3F928B1A0F54051023901D0082800D151
:10874000002010BD1C5700202821018017214180E6
:108750000021017141711B218171C17170470000BD
:108760002DE9F047394E002780463D46DFF8E0907E
:10877000D6F804A057E003D00446D0F81C8035E0BA
:1087800099F8002002EB4201521CD2B289F8002075
:1087900009EBC10199F80230091D9A4201D189F80B
:1087A000005048680A780446012A12D0022A02D0F2
:1087B000032A3BD108E001F027FF00B1012725740F
:1087C00034E00574C06900E070680028F9D1706079
:1087D0002CE0207C50BB88686060C868A060086995
:1087E000E0604869A061F07800B165606268B168D6
:1087F000184B501A20F07F40984202D2A1680844DA
:1088000006E0881AA16820F07F40814202D9081A48
:10881000206000E0256065600120A560207420468E
:10882000E56101F0D3FEB8F10000A4D199F8001081
:1088300099F801008142A3D117B97168514502D05E
:108840000120BDE8F0870020FBE70000B0530020C6
:10885000C85C0020FFFF7F008AB0FEF701FC20B15A
:1088600043A24FF45C71FDF7D5FCFDF7CDFF182254
:1088700043496846FDF7D3FD4248069042494FF40C
:108880008070CDE9070109900723404A06A9684690
:10889000FEF79EFC20B136A240F29131FDF7BAFC02
:1088A0000120FFF7BFF940F2666202213848FEF767
:1088B00023FB20B12EA240F20931FDF7ABFC0420CE
:1088C00000F034FB042000F0C4FB052000F02EFB78
:1088D000052000F0BEFB062000F028FB062000F07B
:1088E000B8FB072000F022FB072000F0B2FB00F0ED
:1088F00009FC20B11EA240F24F31FDF78BFCFFF7BF
:108900006FF90021234800F0ABF820B118A240F223
:108910007931FDF77FFC2048FEF7FEFD20B114A25F
:1089200040F24531FDF776FC1A4D1C4800242C35E9
:1089300040F29126CDF8000005EB04106946FFF7E0
:1089400071F818B10AA23146FDF764FC641C042CCE
:10895000F2D3FEF7BFFD0020FDF740FF10A0FEF7A9
:1089600083F801F0FDFC00BF00F0E0FBFCE7000035
:108970002E2E5C2E2E5C2E2E5C6D61696E2E630099
:1089800050AB0200F0540020F0550020A9A70200CF
:1089900030530020F05600201D7F02002587020082
:1089A0007878787878787878787878787878787847
:1089B000787878787800000010B50A8849888A426B
:1089C00003D1FDF777FC012010BD002010BD70B56C
:1089D0000C460546FDF751FC002802D06188286846
:1089E000084470BD01F01F0301229A40D243490997
:1089F00000EB8100114600F015B84A0950F822003A
:108A000001F01F0201219140084000D00120704771
:108A100001F01F0301229A40490900EB8100114631
:108A200000F006B808B56A46FDF77FFC009808BD5F
:108A300008B56A46FDF76CFC009808BDC20800F056
:108A400007030120895C98400840704710B5C208B0
:108A500000F00703885C01249C402043885410BD2B
:108A600070B5040010D02820A162208060801B20F7
:108A70002071002504EBC500801DFFF765FE6D1C0D
:108A8000042DF7D3002070BD0E2070BD2DE9F047F6
:108A900085888EB00C462E46042D7DD20188DFF8E5
:108AA000909100274FF0010A242976D006DC102986
:108AB00009D0112934D0232931D1AFE03A2935D05A
:108AC00055292CD154E004EBC608217988F80C1004
:108AD000C07B08F10608012802D0022805D101E078
:108AE000208800E06088A8F80000B8F80010B8F806
:108AF000020081420AD93046A5DF10B1112803D007
:108B000004E088F805A001E088F804A098F80610B1
:108B100098F80700814271D93046FFF7F0F96DE00F
:108B200004EBC600801DFFF70FFE67E0314604EB43
:108B3000C106408936F8062F824200D81046708060
:108B4000172800D217207080A06A70B1707960B1C8
:108B5000D9E90020CDE90020ADF802107088ADF809
:108B60000400A26A2046694690477771377145E054
:108B7000C08804EBC60808F10608172800D21720A1
:108B8000B8F80010814200D80846A8F8020088F81A
:108B90000470B8F8001001E03DE014E03046B5DFA5
:108BA00098F8050050BBA06A40B3D9E90210CDE99E
:108BB0000010ADF80260B8F80200ADF804002046DD
:108BC0006946A26A19E0011D2C226846FDF727FCC0
:108BD000BDF80000BDF8042004EBC0014A73A26A8E
:108BE00062B1D9E90432CDE90B32ADF82E00487BF1
:108BF0008DF83000A26A20460BA9904704EBC5040B
:108C0000A07A002807D0E1882846A5DF002802D1F5
:108C1000A77284F80BA00EB0BDE8F08704EBC60283
:108C2000017A107B8842BFF477AF014674E70000F9
:108C3000FCAB020000F180400068002800D0012059
:108C4000704708B500F18040002101600068009085
:108C500008BD000070B50B4C207808B185250FE0E9
:108C60000020A06060602061E060074800F05EFCCA
:108C7000054600F0ADFB08B900F042FC0120207071
:108C8000284670BDB85B0020F97D020038B500258C
:108C90008DF800506846FEF717FB074CE068401E51
:108CA000E060E06810B900F051FCA5709DF800008C
:108CB000FEF72EFB38BD0000B85B0020F0B505467E
:108CC0000478154889B0164640F82420124A0869ED
:108CD0000832A2F10C0742F82400487F38552022C0
:108CE0006846FDF79CFB04942878385C48B10EB1C7
:108CF0000A4A00E000226946281D00F03FFF09B043
:108D0000F0BD0EB1064A00E00022694605F10C00F4
:108D100000F0EAFDF3E7000068530020E5A9020037
:108D20008DA8020030B40378054CE35C1BB130BC65
:108D3000001D00F059BF30BC0C3000F03FBE0000F9
:108D40006453002030B40378054CE35C1BB130BCA5
:108D5000001D00F0CBBF30BC0C3000F0A5BE000001
:108D600064530020044801214174007A08B10020B6
:108D700070470120704700007C5E0020012801D070
:108D8000032808D10449002201284A7400D0002099
:108D9000087401F00FBA70477C5E002070B502467F
:108DA000022801D0032A45D1234C207A002841D043
:108DB000012833D0022831D120480023022A00683C
:108DC00002D0032A2AD11BE0E360017911B1012905
:108DD00024D10DE0D0E90565711B4FF48056B142F6
:108DE00000D33146294481614569A9420ED015E07E
:108DF0000169491C0161426991420FD1237213E05C
:108E0000E168491CE160082908D9E3602372022A5D
:108E10000AD00D21FFF74AFB01F0C2F9607C28B1AE
:108E2000BDE8704000F0DABA0021F3E7BDE8704019
:108E300001F0C0B970BD00007C5E0020C45300206A
:108E40002DE9FF411C46DDE90A7815460E466846C5
:108E500000F0BCF846EA450141EA840141EA0722F4
:108E600042EA0841009A00EB8200C0F80017BDE812
:108E7000FF812DE9FF411C46DDE90A7815460E46C3
:108E8000684600F0B1F846EA450141EA840141EA4A
:108E9000072242EA0841009A00EB8200C0F800175E
:108EA000BDE8FF812DE9FF411C46DDE90A78154642
:108EB0000E46684600F0A6F846EA450141EA8401FC
:108EC00041EA072242EA0841009A00EB8200C0F81A
:108ED0000017BDE8FF812DE9FF411C46DDE90A7856
:108EE00015460E46684600F09BF846EA450141EA01
:108EF000840141EA072242EA0841009A00EB82001D
:108F0000C0F80017BDE8FF811CB500220B46009297
:108F100011460192FFF7C6FF1CBD1CB500220B468F
:108F2000009211460192FFF7D6FF1CBD08B50090D4
:108F3000684600F03DF8009A032100EB8200C0F87B
:108F4000001708BD1CB5002100910B4601220191BC
:108F50001146FFF7A7FF1CBD1CB5002100910B4671
:108F6000012201911146FFF7B6FF1CBD13B50C4657
:108F7000684600F039F8009900EB8101D1F800272C
:108F800022F44032C1F80027009900EB8100D0F8AC
:108F9000001741EA0441C0F800171CBD01B568463E
:108FA00000F006F8009A01219140C0F80C1508BDA8
:108FB0000168202902D24FF0A040704701F01F0144
:108FC000016001487047000000030050016820293B
:108FD00002D24FF0A040704701F01F01016001482C
:108FE00070470000000300500168202902D24FF0B2
:108FF000A040704701F01F01016001487047000068
:10900000000300500168202902D24FF0A0407047B1
:1090100001F01F010160014870470000000300508B
:109020000168202902D24FF0A040704701F01F01D3
:1090300001600148704700000003005001B5684618
:10904000FFF7D2FFD0F810050099C84000F00100EA
:1090500008BD01B56846FFF7ABFF009A01219140BA
:10906000C0F8081508BD01B56846FFF7CBFF009AA8
:1090700001219140C0F8081508BD01B56846FFF709
:10908000CFFF009A01219140C0F8081508BD38B5FE
:1090900001240090684631B1FFF798FF00998C4099
:1090A000C0F8084538BDFFF791FF00998C40C0F823
:1090B0000C4538BD1CB5094C0144D4E90034CDE958
:1090C00000346C4606E000BF54F82030D3F8103569
:1090D000401C08C28142F7D81CBD000030AC020021
:1090E000034908B50844002101600068009008BDEC
:1090F0000060004002494058012800D0002070471D
:1091000000600040064910B500204870091D086045
:10911000BFF35F8F0349044800F0AEF9002010BD93
:10912000CC53002080AC0200905E002008B50020E7
:109130008DF800006846FEF7C7F8F1EE100A20F03F
:109140009F00E1EE100ABFF35F8F08494020C1F88D
:1091500080029DF80000FEF7DBF800F039F908B155
:1091600041DF08BD20BF40BF20BF08BD04E000E0D4
:1091700008B5002242504058009008BD20B1034974
:1091800009680160002070470E20704724AD02007E
:10919000FEB506460C460846FFF7F0FF002846D10C
:1091A000002500958DF8006005208DF802000195DE
:1091B0000220ADF80400029569462020226869DF8C
:1091C00000958DF8015004208DF8020001270195CB
:1091D00002958DF8037069464020226869DF00958A
:1091E0008DF800602820ADF80200019502956946CF
:1091F0002320226869DF0095019502958DF80070A3
:1092000069460120226869DF4FF4B0600090019543
:1092100002956946A120226869DF009501950295B3
:109220008DF800506946A020226869DF0020FEBD4D
:1092300060DF002802D1024A01211170704700004E
:10924000F753002030B5154899B00078002822D097
:109250005FF05404ADF8604018A903A861DF48B17D
:10926000052818D019B00EA2BDE8304040F23911DF
:10927000FCF7D0BF03AD1A49684600F0FDF806E0E0
:10928000D0E9002128469047684600F00CF9029882
:109290000028DFD0F4E719B030BD0000F7530020FC
:1092A0002E2E5C2E2E5C2E2E5C2E2E5C2E2E5C2EF8
:1092B0002E5C636F6D706F6E656E74735C736F663A
:1092C000746465766963655C636F6D6D6F6E5C6E0B
:1092D00072665F7364685F626C652E6300000000F5
:1092E00028AD0200F8B5134C2078C0B10120A07061
:1092F00001F06AF8112814D0022001F07DF8002551
:109300008DF800506846FDF7DFFF11DF0646257037
:109310009DF80000FDF7FCFF2EB13046F8BD082097
:10932000F8BD0020F8BDA57001F088F8032001F019
:1093300063F8F6E7F45300207CB5194C207808B1A7
:1093400008207CBD0120A070002001F03DF811280C
:1093500019D0002001F050F8124800260068019052
:109360008DF800606846FDF7AFFF0F4901A810DFD8
:1093700005000AD0002020709DF80000FDF7C8FF0E
:109380002DB128467CBD00207CBD0120F3E7A670EE
:10939000667001F08FF8012001F02EF8F3E700006D
:1093A000F4530020BCAC0200716F02000EB50749F7
:1093B000684600F061F805E0D0E90010884768468B
:1093C00000F071F802980028F6D10EBDD8AC02006A
:1093D0000148007870470000F45300200548817868
:1093E00019B1007818B1FFF77DBF08207047FFF76B
:1093F000A3BF0000F45300201FB568464BDF40B107
:10940000052816D004B00BA2BDE810406B21FCF774
:1094100001BF184901A800F02FF806E0D0E90021AB
:109420000098904701A800F03EF803980028E4D087
:10943000F4E71FBD2E2E5C2E2E5C2E2E5C2E2E5C95
:109440002E2E5C2E2E5C636F6D706F6E656E747366
:109450005C736F66746465766963655C636F6D6D7C
:109460006F6E5C6E72665F7364685F736F632E63AA
:109470000000000044AD0200016009684160AFF3E4
:10948000008010B5D0E900215368994201D1002134
:1094900004E0D1E90034A34202D01946816010BD36
:1094A00008314160F0E7816800290BD002689268BA
:1094B0000A44826041684B689A4203D10831416096
:1094C000FFF7DFBF70474058002800D001207047E9
:1094D00008B5002242504058009008BDD0F804035F
:1094E000084000D0012070474058002800D00120DB
:1094F000704708B5002242504058009008BD000057
:1095000008480068012110F0010F08D14FF0E02059
:10951000E02280F80024C0F88012C0F80011024850
:109520000160704700E100E018050040064902466E
:1095300000200B790BB1852070470A6001220A7167
:1095400000224A717047000078530020044901202E
:10955000086004480168C1F300410029FAD170474E
:109560000C00004018040040002802D0014980018E
:109570000847704751AC020010B5044600F0ECFDFE
:1095800028B12046BDE810400021FFF7EFBC20467F
:1095900000F0EEFD00280FD02046FEF7EFFB074A53
:1095A00002EB8001D1F8103523F00103C1F810352A
:1095B00001218140C2F8081310BD00000060004086
:1095C0002DE9F0410E46804600F0C6FD204D0028F2
:1095D000404616D0FEF7D2FB284490F85800800988
:1095E000032802D001280AD003E04046FFF726FDF9
:1095F00028B103214046BDE8F041FFF7B7BC022186
:10960000F8E700F0B5FD002820D04046FEF7B6FB95
:109610000446104F4FF4807007EB840100EB840088
:10962000D1F8102580B242F00102C1F81025FFF7F1
:1096300057FD002E0AD04046FEF7A0FB55F820004B
:10964000002803D00120A040C7F80403BDE8F08142
:10965000CC5B0020006000402DE9FC41DFF8C080B9
:10966000044608EB0400002790F930001346C017A9
:109670000E46401C01D008274FE0B0781946C0F3D1
:1096800040022046FEF756FB0546401C44D0B07809
:1096900041071CD4C0070DD068460094FFF7A4FC16
:1096A000009900EB8100D0F8001721F00201C0F80A
:1096B000001707E000217378204600910A460191C7
:1096C000FFF7D7FB164920466431FFF7BFF9B078A2
:1096D000800718D51348317800EB8500D0F81025A5
:1096E000114B1A40C0F810254FF47C524FF4403310
:1096F00002EA042203EA01410A43D0F810150A43A2
:10970000C0F8102509E008EB0500327810F8581F62
:1097100041EA8211017000E004273846BDE8FC816F
:10972000CC5B002000600040FFC0FCFF10B5FFF7DD
:1097300085FC002800D0012010BD000070B5194D37
:1097400095F86A0008B1082070BD0020411E2A1853
:10975000401CC0B282F830103028F8D300242046D4
:10976000FEF7DAFA641CE4B20C2CF8D30D4900249D
:10977000E0204C66A1F868400B4981F800040126FE
:109780004020891FC1F88002C1F800014FF4BE706B
:10979000FFF7A6FC0549F007C1F8040385F86A60E5
:1097A000204670BDCC5B002006E000E00060004079
:1097B000034890F86A00002800D00120704700009C
:1097C000CC5B00200121B1EB507F01D1012070471B
:1097D0000020704738B50D4600F0D6FC040014D0C8
:1097E00000208DF800006846FDF76EFD207928B155
:1097F0009DF80000FDF78CFD112038BD012025608B
:1098000020719DF80000FDF783FD002038BD0000A9
:10981000016801220A604079024A00EB40000221FF
:10982000115470478853002070B54379204C44F898
:1098300023204279231F02EB42029A5C0AB10820DE
:1098400070BD90F904208C78002A4FEA441406DA9F
:1098500002F00F0202F1E02282F8144D03E002F15F
:10986000E02282F8004490F90420012502F01F064E
:1098700005FA06F45209920002F1E022C2F8804291
:10988000C2F8004102680C88C2F8084544790A7998
:1098900004EB44041C4462704279C97802EB420232
:1098A0001A449170407900EB40001D54002070BDB7
:1098B0008C53002070B50E4605464FF4807101248C
:1098C0000068FFF755FC2868C0F84443002E02D01A
:1098D0002868C0F8044370BD0149024800F0EEBF9B
:1098E000385C0020002000402DE9F0410546007959
:1098F00016460F4600EB40012D4A01EBC00102EB7A
:10990000810494F82A1011B10820BDE8F08129499A
:1099100051F820102868FFF75DFF08B11120F4E727
:1099200039462846FDF70EFD666038692060300034
:109930004FF001062FD03F7F4FF48E712868FFF75C
:10994000C7FD4FF4A2712868FFF7C2FD28681A49C5
:10995000C0F8041328684FEA4711000B40B20028F2
:1099600006DA00F00F0000F1E02080F8141D03E09B
:1099700000F1E02080F800142868000B40B200F0ED
:109980001F0206FA02F14009800000F1E020C0F851
:109990008012C0F8001128680421C0F800150020CA
:1099A000A061E06184F8290044F8140FA675ACE7C3
:1099B000385C002038AC0200800002002DE9F05F26
:1099C000054600794FF4017600EB400303EBC0003D
:1099D000344B03EB80040020636813B12B68C3F899
:1099E0000863A3694FF000096BB1E06938B16068A2
:1099F00010B12868C0F804631120BDE8F09FE2614F
:109A00000120216105E0C4F82490A261E160C4F85E
:109A10001C9094F82910014302D1284600F090FCD4
:109A200060680028286803D0C0F804630020E4E7D9
:109A30004FF4A2763146FFF74BFDB2464FF4927BCE
:109A400059462868FFF73FFD06464FF484712868A1
:109A5000FFF739FD804651462868FFF734FD074679
:109A600048EA07003043EBD056EA070007D1214609
:109A7000286800F035FCA169606A8142E0D8C4F82A
:109A800018900EB10320B8E70FB10F20B5E794F896
:109A9000291001200029296801D00860C6E7486024
:109AA000C4E70000385C00202DE9F0470546007946
:109AB0000B4600EB400101EBC000234901EB8004A1
:109AC000284600F043F810B11120BDE8F0874FF0B0
:109AD0000008C4F82080A360626184F828804FF4F5
:109AE0008E76474631462868FFF7F2FC28684FF02B
:109AF0000109C0F808902146286800F037FE606828
:109B000000BBD5F800A00EE094F8280008B10F279C
:109B100016E031465046FFF7D6FC0028F4D0214627
:109B2000504600F023FE216A60698142F1D331463C
:109B30002868FFF7C8FC0028F9D02868C0F80C9006
:109B4000C4F814803846C0E7385C0020007900EB88
:109B5000400101EBC000044901EB8000406900288E
:109B600000D0012070470000385C00200149024805
:109B700000F050BF645C0020002000402DE9F0415F
:109B80000546164600790F46154A00EBC00102EB68
:109B9000810494F8201011B10820BDE8F08111492A
:109BA00051F820102868FFF715FE08B11120F4E7DE
:109BB00039462846FDF701FC6660386920601EB111
:109BC000397F2846FEF7F8FC28680821C0F8001500
:109BD0000020A061E0610121606184F82010DCE7D1
:109BE000645C00203CAC02002DE9F05F0446007983
:109BF0000E4600EBC001DFF8F0A017460AEB810526
:109C00003046FFF7DFFDB0B168684FF000084FF451
:109C1000047910B12168C1F80893A8694FF0000BCE
:109C200080B1E86948B1686810B12068C0F8049351
:109C30001120BDE8F09F1020FBE7EF614FF0010815
:109C40002E6102E0EE60C5E9067B00254FF48871C5
:109C50002068FFF74EFC4FF4A2712068FFF749FC23
:109C60002068C0F83465C0F838752068B8F1000F76
:109C700012D0D0F8001241F02001C0F80012207973
:109C8000D04600EBC0010AEB8100406838B1206883
:109C9000C0F804932846CCE701210160EFE74FF4B8
:109CA000887A4FF4A27951462068FFF71DFC0746D9
:109CB00049462068FFF718FC06464FF49271206869
:109CC000FFF712FC014647EA06000843EBD0227971
:109CD00002EBC20308EB8302C2F818B001B10325FE
:109CE000002ED7D00F25D5E7645C00202DE9F04782
:109CF00004460E460079204900EBC00001EB8005C8
:109D000017463046FFF75EFD30B1204600F036F8CA
:109D100020B11120BDE8F0871020FBE76F61AE6035
:109D20004FF49076002731462068FFF7E2FB4FF4AE
:109D3000AC7841462068FFF7DCFB2068AA686969B7
:109D4000C0F84425C0F84815206801218160686882
:109D500078B9B14649462068FFF7C6FB064641463A
:109D60002068FFF7C1FB0643F4D000B10F270020A5
:109D700068613846CEE70000645C00200079054940
:109D800000EBC00001EB80004069002800D00120FA
:109D900070470000645C002070B52E4D0446818B36
:109DA00080696A68FDF74AFB05F1180608B130784A
:109DB00020B3A18BA069AA68FDF740FB08B17078B9
:109DC00060B3A18BA069EA68FDF738FB08B1B078F1
:109DD00068B3A18BA0692A69FDF730FB08B1F07860
:109DE00070B31C49203100208ADF002815D0BDE85F
:109DF000704019A240F2BD11FCF70CBA0020A18BF3
:109E000001E0401C80B28142FBD80020164A0123A9
:109E1000686102F10801A01C8CDF70BD0120124AAC
:109E20000346686102F10801A01C8CDF70BD0220AE
:109E30000D4A0123686102F10801A01C8CDF70BD8E
:109E40000320094A0123686102F10801A01C8CDF8C
:109E500070BD0000D84700202E2E5C2E2E5C2E2ECA
:109E60005C6D61696E2E630038AB02002DE9F84F1E
:109E700005460C460888B5F8CA12884259D195F8AB
:109E8000C602DFF8F8A000EB8001C1EB801005EB03
:109E9000400160884FF003094FF00008F0BBE688EE
:109EA0000879A21DF3B250FA86F6062E01D80344B3
:109EB00000E006230B7100261CE000BF00EBC0038E
:109EC00006EB860702EB470701EB4303D7F802C016
:109ED000C3F80AC0D7F806C0C3F80EC07F895F82F6
:109EE000A3F81480A3F81680A3F81880401CA3F8E8
:109EF0001A80761C0B798342E0D895F8C62200EBD5
:109F0000C00002EB8203C3EB821205EB420231F880
:109F10001000128990420ED2087900E00BE006286A
:109F200009D085F8C50221882846FDF72FFF0100DA
:109F30000AD1BDE8F88F85F8C5822288694628468F
:109F4000FDF7F6FF01000BD085F8C782228828466E
:109F5000FEF7ECF88AF800902188AAF80210E8E7EA
:109F60009DF800000028E4D0228801212846FEF751
:109F700095F82188284600F0B1F8DAE71858002053
:109F8000F8B505460C460888B5F8CA1288425DD176
:109F900095F8C602A61D00EB8001C1EB801005EB11
:109FA000400395F8C502618800EBC00003EB400058
:109FB0000A3039B329E000BF01EB410206EB42024F
:109FC0009788B7F5245F0CD06FF4245C17EB0C076F
:109FD0000AD0012F02D0072F0BD108E0528842810E
:109FE00007E05288828104E05288C28101E05288F1
:109FF000028242892AB182891AB1C2890AB1028ACF
:10A000001AB9491C32888A42D6D800268DF80060D9
:10A0100095F8C5021979401C884203D101208DF8BA
:10A02000000018E085F8C502228869462846FDF739
:10A030007FFF01000BD085F8C76222882846FEF713
:10A0400075F80A480321017021884180F8BD9DF808
:10A0500000000028FAD0228801212846FEF71EF8C9
:10A060002188284600F03AF8F8BD00001858002072
:10A0700070B505460C4690F8C602228800EB8001B8
:10A08000C1EB801005EB4001B5F8CA02824222D133
:10A09000608848B100212846FEF700F8218828464C
:10A0A000BDE8704000F01AB8A2680A60E068C1F824
:10A0B000060021882846FDF769FE01000BD000202C
:10A0C00085F8C70222882846FEF730F802480321A7
:10A0D00001702188418070BD185800202DE9F041A1
:10A0E000044690F8C9020E46401C1949C0B284F8D3
:10A0F000C902C9680327174D4FF0000E884224D2C9
:10A1000084F8C5E294F8C602401CC0B200EB80019E
:10A11000C1EB801104EB410284F8C602A5F11801DD
:10A1200001EB800001210068106082F804E03046F5
:10A130009BDF010007D084F8C7E232462046FDF7D6
:10A14000F5FF2F706E80BDE8F08184F8C7E2F8E774
:10A150004C530020185800200449084490F930005E
:10A16000082801DB0120704700207047CC5B0020ED
:10A170000449084490F93000082801D201207047B2
:10A1800000207047CC5B00200349884201D103487E
:10A1900070470020704700000020004080530020DE
:10A1A000034802490068FEF707BC0000C8530020BE
:10A1B00058AC02002DE9F041234C0025234E207AB3
:10A1C000012730B92248311D0068FEF700FC3060DD
:10A1D00038B1022020723168087928B101281ED1D7
:10A1E00016E06560BDE8F081D1E90503C01A4FF4BF
:10A1F0008052904200D31046B7EB900F01D28208F4
:10A2000000E001220869C9681844194429DF03E005
:10A21000D1E90301084428DF58B1112812D00321E5
:10A220003068FEF743F925726560BDE8F041FFF73D
:10A23000B7BF207C0028D5D1BDE8F0410021022025
:10A24000FEF7ACBD2772CDE77C5E0020C453002032
:10A2500058AC020070B50C4B00210A4ADC680DE0D6
:10A2600002EB81058678AD78B54206D132F82150EF
:10A270000688B54201D1586870BD491CA142EFD390
:10A28000002070BD005800204C53002070B50126FE
:10A2900070044FF0E0210025C1F88001084C401007
:10A2A000C4F84803C4F8080366602F20FFF75CF980
:10A2B000A660044C2F20A560FFF756F9A57070BD6D
:10A2C00000100140B0530020002805D0042803D11D
:10A2D00002480168491C016070470000405300209B
:10A2E00070B5054688690C4600284FF484712846ED
:10A2F0000AD0FFF7EDF8D5F81805626AE1688854CE
:10A30000606A401C606270BDFFF7E2F8D5F818057E
:10A3100070BD1FB501238DF80030CDE90121D0E9D2
:10A320000012684690471FBD1FB501238DF800300D
:10A330008DF808100192D0E90012684690471FBDC1
:10A3400010B5044600684FF49271FFF7C1F84FF45E
:10A3500084712068FFF7BCF820680121016010BDFE
:10A360008BDF034903488ADF0020FDF78DBC000026
:10A37000F847002040AB020038B50021012548B164
:10A3800001280CD0032809D1FFF7BAF8BDE83840FE
:10A39000FEF77CBC4FF0E020C0F8805138BD8DF84E
:10A3A00000106846FCF790FF064C207808B9FEF7CD
:10A3B00051FCE068401CE060A5709DF80000FCF7CF
:10A3C000A7FF38BDB85B00203EB504460949684682
:10A3D000FFF752F808E000BFD0E90021204690477F
:10A3E00030B16846FFF75FF802980028F4D13EBD0F
:10A3F00011203EBDC0AC02003EB504460849684687
:10A40000FFF73AF807E000BFD0E900212046904767
:10A410006846FFF748F802980028F5D13EBD0000D5
:10A42000CCAC0200002805D103490120487000206F
:10A43000FDF7CEBC70470000B85B002010B51620B9
:10A44000FCF746FB48B10B4882684FF4800162B1CB
:10A45000016821F48001016010BDBDE8104042F2A6
:10A46000010005A2AD21FBF7D5BE4FF0E020C0F8FA
:10A47000801110BDD45D00202E2E5C2E2E5C2E2E61
:10A480005C2E2E5C2E2E5C2E2E5C636F6D706F6EBC
:10A49000656E74735C736F66746465766963655C1E
:10A4A000636F6D6D6F6E5C6E72665F7364682E6352
:10A4B0000000000010B51620FCF70AFBA0B11248FE
:10A4C00090F800044009082811D280B101280ED06C
:10A4D00004280CD00D4882684FF480017AB10168DD
:10A4E00041F48001016010BD42F2010001E042F23E
:10A4F0000200BDE8104006A2A121FBF78BBE4FF081
:10A50000E020C0F8001110BD16E000E0D45D00208E
:10A510002E2E5C2E2E5C2E2E5C2E2E5C2E2E5C2E75
:10A520002E5C636F6D706F6E656E74735C736F66B7
:10A53000746465766963655C636F6D6D6F6E5C6E88
:10A5400072665F7364682E63000000002DE9F84FA7
:10A550001D4C00256846D4E901A6FDF733FE00270F
:10A5600038B30023009A61681CE0D1F800C00846A7
:10A57000944503D9ACEB02020A6015E0A2EB0C0291
:10A5800063440760D0F80CC0C1698146BCF1000F7C
:10A5900008D006EB030828F07F48C0E9018CC9F811
:10A5A0001C5005460029E0D128466160FEF7D8F826
:10A5B00003E02846FEF7D4F810B15046FDF72AFC18
:10A5C000E770BDE8F88F0000B05300200D4B10B5C8
:10A5D000596831B102680C68A24204D8A21A0A6014
:10A5E000C161586010BD0B4603E00B46C969121BE0
:10A5F00021B10C689442F8D3A41A0C600260C161C6
:10A60000D86110BDB05300202DE9F041144E776899
:10A610003D462C4603E0844204D02546E469002CE4
:10A62000F9D11BE0D4B1A5420BD1F869706040B9F3
:10A630000C49012088600021B160F0702F20FEF7E6
:10A6400093FF2168E069E86110B10268114401607C
:10A650007068874202D00120BDE8F0810020FBE74E
:10A66000B0530020001001407CB5064600240D4682
:10A670008DF800406846FCF727FE01A800F044FA78
:10A6800070B10570094946609DF8040048709DF856
:10A690000000FCF73DFE1420FCF73EF820467CBD90
:10A6A00004249DF80000FCF733FEF7E7C85C0020A7
:10A6B0002DE9F041194D6C68002C2CD0184800276A
:10A6C0000068A968B846401A20F07F462068B0426A
:10A6D0000CD82146361A0744E469087C20B181F879
:10A6E0001080886949698847002CEFD129786878FB
:10A6F000814206D1401CC0B26870022801D185F8A1
:10A700000180064869780C3040F82170BDE8F041BE
:10A710001420FCF701B8BDE8F0810000B053002020
:10A720000415014010B50F4CD4E90010884211D037
:10A7300000EB80020C4800EB82018B785BB130F8B3
:10A7400022000831A3DF002804D12079401C00F04A
:10A750000700606010BD30F8220089880022A1DF68
:10A76000F1E700005C530020185B002070B50C4638
:10A7700005464FF48E71FEF7ABFE216AA068415C7E
:10A78000206A401C2062C5F81C1570BD1FB5002250
:10A790008DF800200291816801914261D0E9001298
:10A7A000684690471FBD000010B5017849B10129E6
:10A7B0000FD14068BDE8104006A240F22531FBF7FA
:10A7C00029BD094C074861880844FCF7C7FC0020F4
:10A7D000608010BD2E2E5C2E2E5C2E2E5C6D61696D
:10A7E0006E2E6300FC530020D84700207CB5017812
:10A7F000244D81B301290BD002292BD18DF80010F3
:10A80000C068691C01900122C81DFEF78BFA2EE07A
:10A81000406801781C48FCF704FC1B4C012618B169
:10A820008DF80060019006E0A068E168814205D0E3
:10A8300000208DF80000696868468847A068E168D4
:10A84000081AA188884207D80E490122491CC81D50
:10A85000FEF768FA7CBD01E0AE70FBE70A480949E3
:10A860001030FCF7C3FB30B103208DF8000069689D
:10A8700068468847EEE70349012201F10800FEF728
:10A8800061FAE7E7D85300209C5E00201FB50A4616
:10A8900001788DF8001041680191017A8DF8081057
:10A8A000C0680390044850F82210083850F822205D
:10A8B000684690471FBD0000705300202DE9FF47F8
:10A8C0000C4605464FF40071FEF708FE01274FF4D1
:10A8D0000178002618B34FF4927949462846FEF7CE
:10A8E000F2FDE0B149462846FEF7F2FDC5F80883BF
:10A8F00094F8290000B96F6002208DF80000D5F8A7
:10A900008004C5F880040390A0690290E06801907B
:10A91000A661E661D4E900126846904728E0042168
:10A920002846FEF7DBFD18B34FF484712846FEF786
:10A93000CAFDE8B121462846FFF7D2FC616AA0694A
:10A94000884215D1E06938B1E268616AA061206986
:10A95000E6616662E06008E094F8290000B96F6083
:10A96000C5F80883A661E268616A2046FFF7D1FC5A
:10A970004FF48E7841462846FEF7A5FD78B1206A4F
:10A980006169884202D294F8280020B341462846E3
:10A99000FEF79EFD616911B12046FFF7F7FE4FF407
:10A9A000A27841462846FEF78EFD002818D0414681
:10A9B0002846FEF78DFD94F8290000B12F60A069AC
:10A9C00000280DD0A661E268616A04B02046BDE8A7
:10A9D000F047FFF79EBC21462846FFF7C7FEDEE79B
:10A9E000BDE8FF871FB50A4601788DF80010416861
:10A9F0000191017A8DF80810C0680390044850F85E
:10AA00002210083850F82220684690471FBD0000E9
:10AA1000705300202DE9FF410C464FF49277054614
:10AA20003946FEF761FD0026C0B139462846FEF7DB
:10AA300060FD02208DF80000D5F88004C5F8800480
:10AA40000390D5F83C058DF80800E0680190A661F8
:10AA5000E661D4E900126846904723E04FF4887716
:10AA600039462846FEF740FDE0B139462846FEF754
:10AA700040FDD5F83C15A069884213D1E06960B16A
:10AA8000E268D5F8000220F02000C5F80002E06975
:10AA9000A0612069E661E06001E0A661E26820460D
:10AAA000FFF742FC4FF4A27739462846FEF71CFD1B
:10AAB00060B139462846FEF71CFDA06930B1A66199
:10AAC000D5F83C152046E268FFF72EFC4FF490774E
:10AAD00039462846FEF708FD002813D03946284697
:10AAE000FEF707FD606900280CD0D5F84C058DF8FD
:10AAF00000608DF80800A06801906661D4E900123A
:10AB000068469047BDE8FF810A494A788B78521C15
:10AB1000D2B2934200D100220B78934201D100209F
:10AB200070470270487800EB400001EBC000001D48
:10AB300070470000C85C0020060006005A0058025A
:10AB40000001A00050000000000000000000000014
:10AB50001D0000001E0000000C0000000B000000A3
:10AB60000000000000E0D7010000074100000000E5
:10AB700000400240240004000D0E0F100B0C1819A9
:10AB800001000000000000000000000000000000C4
:10AB900000000000000000000000000000000000B5
:10ABA00000000000000000000000000000000000A5
:10ABB0000000000000000000000000000000000095
:10ABC0000000000000000000000000000000000085
:10ABD0000000000000000000000000000000000075
:10ABE0000000000000000000000000000000000065
:10ABF000000000000000000000000000770A0000D4
:10AC000000000000770A0000000000007ADA00006F
:10AC10000000000023D1BCEA5F782315DEEF12129A
:10AC20000000000002010000000000000000000021
:10AC30000000005000030050D99802006D9B0200F4
:10AC400003000000885C00200000000000000000FD
:10AC50000338FDD870470000E05D002000100000C0
:10AC600004000000010000000000000000000000DF
:10AC700000000000000000000000000000000000D4
:10AC800068AC020080AC020004000000FFFFFFFF80
:10AC9000FFFFFFFFFFFFFFFFFFFFFFFF00000000C0
:10ACA000000000000000D6010701000000AE020015
:10ACB00008AE0200000000000000000001000007D4
:10ACC000ACAC0200BCAC020008000000E4AC020026
:10ACD000F4AC020008000000F4AC020004AD020075
:10ACE0000800000028AE020038AE0200000000009C
:10ACF0000000000018AE020028AE020000000000B4
:10AD000000000000A0AD0200A8AD0200A8AD020046
:10AD1000D8AD0200D8AD0200F8AD0200F8AD0200D7
:10AD200000AE0200D847002004AD020024AD0200AE
:10AD30000800000008AE020018AE0200000000008B
:10AD40000000000034AD020044AD02000800000025
:10AD5000496D706564616E63654A5959313200000E
:10AD600045434731330000004475616C5F454547FA
:10AD7000370000005050475F313030487A00000003
:10AD800038AE0200D8470020240C0000E064020026
:10AD900080AE0200FC530020C42A0000C06A0200FA
:10ADA00071780200000000008D8A0200F056002039
:10ADB000357502000048002035750200CC4A00209D
:10ADC00035750200984D0020357502006450002052
:10ADD0000178020000000000797A02001C57002070
:10ADE000797A02002C570020797A02003C57002023
:10ADF000797A02004C570020ED7502000000000037
:10AE0000658D02000000000025A402000000000083
:10AE10009D8D02000000000045920200000000002D
:10AE2000F99302000000000079A302000000000076
:10AE30007D8D020000000000411460AD021A740410
:10AE40001A68041A5004B205135C5703FF201F014F
:10AE5000FF01CF03FFFFFF01FF01FF01FF01FF0122
:10AE6000FF01FF01FF016C120B120314F17C025A67
:10AE70000C0801A51220BA400841040090D003003C
:040000050002620192
:00000001FF
