:020000040002F8
:10600000C0AB0020DD630200E5630200E76302002D
:10601000E9630200EB630200ED6302000000000090
:10602000000000000000000000000000EF6302001C
:10603000F163020000000000F3630200F563020058
:106040001D670200F7630200C96B0200F7630200DC
:10605000F7630200F763020055650200F763020070
:10606000F7630200F7630200F7630200F7630200C0
:10607000F7630200F7630200F7630200F7630200B0
:10608000F763020075670200F7630200F76302001E
:10609000A5680200F7630200A9680200F763020026
:1060A000F7630200F7630200F7630200F763020080
:1060B000F7630200F7630200000000000000000028
:1060C000F7630200F7630200F7630200F763020060
:1060D00099670200F7630200F76302000000000006
:1060E00000000000000000000000000000000000B0
:1060F00000000000000000000000000000000000A0
:10610000000000000000000000000000000000008F
:10611000000000000000000000000000000000007F
:10612000000000000000000000000000000000006F
:10613000000000000000000000000000000000005F
:10614000000000000000000000000000000000004F
:10615000000000000000000000000000000000003F
:10616000000000000000000000000000000000002F
:10617000000000000000000000000000000000001F
:10618000000000000000000000000000000000000F
:1061900000000000000000000000000000000000FF
:1061A00000000000000000000000000000000000EF
:1061B00000000000000000000000000000000000DF
:1061C00000000000000000000000000000000000CF
:1061D00000000000000000000000000000000000BF
:1061E00000000000000000000000000000000000AF
:1061F000000000000000000000000000000000009F
:10620000DFF80CD000F068F90048004771900200F8
:10621000C0AB002000B583B002900091019244F21F
:10622000010071466A4600F0F3FF03B000BD0000B4
:1062300030B450E8012F93B2C48923448489A34227
:1062400028BF1B1B0489A34202BFBFF32F8F00206E
:1062500007E0C3EA020340E80134002CE9D14FF023
:1062600001000A6030BC704750E8012FC2EA0242C8
:1062700040E801210029F7D1704730B450E8022FDF
:106280001FFAA2F3C488A34202BFBFF32F8F0020DE
:106290000DE0C48923448489A34228BF1B1BC2EAA2
:1062A000034340E80234002CE8D14FF001000A60BB
:1062B00030BC704750E8022FC2EA224240E8022177
:1062C0000029F7D17047034653E8022FD988B2EB73
:1062D000324F4FF0000017BF92B241EA014142EA4B
:1062E000014104E05A68B2EB324F08BF012043E895
:1062F0000212002AE8D1704730B4044654E8000F77
:106300000D4644E80053002BF8D1156030BC7047AF
:1063100030B4044654E8000F40EA010544E8005355
:10632000002BF7D1156030BC704730B4044654E8F8
:10633000000F00EA010544E80053002BF7D1156077
:1063400030BC704730B4044654E8000F80EA0105C1
:1063500044E80053002BF7D1156030BC704730B4CF
:10636000044654E8000F00EB010544E80053002BFD
:10637000F7D1156030BC704730B4044654E8000FC4
:10638000A0EB010544E80053002BF7D1156030BCA9
:10639000704770B404464FF0000054E8006F0D6879
:1063A000AE4207BF44E80023012044E800630E60CA
:1063B000002B1CBF0020F0E770BC704730B40446CF
:1063C00054E8000F88422CBF451A054644E80053A4
:1063D000002BF5D1156030BC70470000064880479F
:1063E00006480047FEE7FEE7FEE7FEE7FEE7FEE7BA
:1063F000FEE7FEE7FEE7FEE7AD680200016202008D
:10640000202A04DB203A00FA02F100207047914074
:10641000C2F1200320FA03F31943904070470000B3
:106420000048704700C9020040EA01039B0703D0FF
:1064300009E008C9121F08C0042AFAD203E011F8C3
:10644000013B00F8013B521EF9D27047D2B201E085
:1064500000F8012B491EFBD270470022F6E710B569
:1064600013460A4604461946FFF7F0FF204610BDC2
:10647000421C10F8011B0029FBD1801A704730B56F
:1064800004460020034600E05B1C934203D2E05C1C
:10649000CD5C401BF8D030BD034611F8012B00F84D
:1064A000012B002AF9D11846704730B50B4601463A
:1064B00000202022012409E021FA02F59D4205D3A3
:1064C00003FA02F5491B04FA02F52844151EA2F14D
:1064D0000102F1DC30BD0000064C074D06E0E0682B
:1064E00040F0010394E8070098471034AC42F6D31B
:1064F000FFF78AFEB8D00200D8D0020070B58C1821
:1065000010F8015B15F0070301D110F8013B2A11C7
:1065100006D110F8012B03E010F8016B01F8016BB4
:106520005B1EF9D12B0705D40023521E0DD401F8B0
:10653000013BFAE710F8013BCB1A921C03E013F879
:10654000015B01F8015B521EF9D5A142D8D30020AE
:1065500070BD00002DE9F04700268AB0DFF85091A9
:10656000B0464FF48075012437460696284603F05E
:10657000E9FA38B1D9F80403204203D0284603F0E1
:10658000D7FA26432D1D64007F1CADB2082FEDD332
:106590004FF4BE74204603F0D5FA48B1204603F00C
:1065A000C7FA46F0004606AA0121002003F0ACFA23
:1065B000404D16F0FF0F15D00127002437420DD0B3
:1065C00009EB8401D1F81005D1F81015C0F30420AF
:1065D00055F82420C1F3014102B190477F00641CAB
:1065E000082CEBD3002E5FDA4FF0FF30CDF810808F
:1065F00054E0281910F8507F90F9000027F0C008E7
:10660000401C3BD007A9404602F0F6FE10B34FEA0B
:106610009719404601F09CFE55F820701FB1B9F162
:10662000030F03D006E0B9F1030F27D104A94046B8
:1066300002F0EAFE4FF0A04101EB8800D0F800071D
:1066400006A9C0F3014A404602F0D6FE18B1BAF1DD
:10665000020F03D012E0BAF1030F0FD1B9F1030F0B
:1066600008D1BAF1020F1DD00221404603F022FAF0
:10667000761CF6B217B149464046B847641C042C54
:10668000B7D3002E10D06A460121002003F03CFA57
:1066900006990098884207D0069004980026344650
:1066A0000790A6E70321E0E70AB0BDE8F087000005
:1066B000006000404081002000F01F020121914055
:1066C0004009800000F1E020C0F88012704700F01F
:1066D0001F02012191404009800000F1E020C0F834
:1066E0000011704700F01F02012191404009800015
:1066F00000F1E020C0F8001270474907090E002899
:1067000006DA00F00F0000F1E02080F8141D704759
:1067100000F1E02080F800147047000070B54FF4DD
:106720008076304602F044FF114CB50560B130462A
:1067300002F045FF0120C5F80803607920B9012067
:1067400060712168002088474FF48276304602F05D
:106750002FFF00280AD0304602F031FF0220C5F892
:1067600008032168BDE870400120084770BD0000A3
:106770003078002007480021C0F84011C0F84411CB
:10678000C0F84811C0F84C11C0F80011C0F804114D
:1067900005F0BEBB0010014004220021014802F0B8
:1067A00009BB000000400240054910B50860012106
:1067B000044804F02FFABDE81040024804F0D8B9AC
:1067C000007800203CC502000148006870470000C6
:1067D000007800201CB50B490B4AD1E90001CDE936
:1067E000000140F6FF70ADF8000006486946083029
:1067F00004F0CAF9002803D004A22921FFF70AFDFA
:106800001CBD000034C5020061B902002E2E5C2EB2
:106810002E5C2E2E5C2E2E5C2E2E5C2E2E5C636F3C
:106820006D706F6E656E74735C6C696272617269B3
:1068300065735C7274635C626F6172645F727463CF
:106840002E63000000F0C6B970B50E46144900EB87
:10685000400001EBC0051446E86A183520B1012854
:106860000FD0022805D113E0284600F0E7F9A04236
:1068700001D2002411E022463146284600F016FAE3
:106880000BE0284600F0DAF9A042F4D20446F2E721
:106890003146284600F0DDF90446204670BD000070
:1068A0003489002005F082BA03F006BFF0B5B54880
:1068B0000023021D0178101D01254FF08054062988
:1068C0000BD11678360708D10678C6F30316032EC7
:1068D00006D0042E04D0052E02D0062907D00EE0E3
:1068E000B4F82463A84FC6F304263E6002E016788D
:1068F000360704D10678C6F30316032E02D0062904
:1069000004D00FE0A24FA14E7E670EE01678360746
:1069100008D10678C6F30316032E06D0042E04D041
:10692000052E02D0062907D00EE0D4F84462994F14
:10693000C6F342363E6002E01678360704D1067888
:10694000C6F30316032E02D0062906D011E0924E9C
:10695000376827F0807737600EE01678360708D161
:106960000678C6F30316032E06D0042E04D0052E97
:1069700002D006290AD011E04FF08046C6F80C314B
:10698000C6F81031834E361F336002E016783607A2
:1069900004D10678C6F30316032E02D0062905D0CB
:1069A0000CE07C4F032664373E600AE01678360719
:1069B00004D10678C6F30316032E02D006290DD0A3
:1069C00014E0764F05263E60744E78363560734E7F
:1069D000083633603F263F1D3E6002E016783607DA
:1069E00004D10678C6F30316052E02D0062957D027
:1069F00062E06B4E36686B4F3E60694E361D3668FE
:106A00003F1D3E60664E083636683F1D3E60644E50
:106A10000C3636683F1D3E60614E103636683F1DAD
:106A20003E605F4E143636683F1D3E605C4E183641
:106A300036685C4F20373E60594E1C3636683F1D25
:106A40003E60574E203636683F1D3E60544E243619
:106A500036683F1D3E60524E283636683F1D3E6008
:106A60004F4E2C3636683F1D3E604D4E30363668F0
:106A70004C4F40373E604A4E343636683F1D3E60CC
:106A8000474E383636683F1D3E60454E3C363668C8
:106A90003F1D3E60424E403636683F1D3E6002E07C
:106AA0001678360708D10678C6F30316032E06D0EB
:106AB000042E04D0052E02D0062907D019E0D4F800
:106AC0005812394A01F04F01116002E011780907AC
:106AD0000FD10078C0F30310032803D0042801D09D
:106AE000052806D131480168C90702D06FF00101BD
:106AF0000160D4F83001062808D1D4F83401062802
:106B000004D12B48016841F4806101602248743847
:106B1000016841F470010160BFF34F8FBFF36F8FC5
:106B20004FF01021D1F80002002803DBD1F8040255
:106B3000002822DA1F4A15601F480468002CFCD088
:106B40001524C1F800420568002DFCD0C1F80442AC
:106B500001680029FCD0136001680029FCD0BFF354
:106B60004F8F0D48F0380168144A01F4E061114379
:106B70000160BFF34F8F00BFFDE712491048086066
:106B8000F0BD0000E00F00F0403501400DF0ADBA5F
:106B900000C007403C050040FCED00E010560040FE
:106BA0000404001020C50040E40E00400004004032
:106BB0003C17004004E5014000E401400400FA05F0
:106BC0000090D003247900200148006800470000AD
:106BD0003878002010B5124C02202061606111A0AD
:106BE000A06104F17800E0614FF4007020620020A1
:106BF000A06260620BA1A164E06204F51E71E16411
:106C00001021A065C4E91410E06509A1E01DFFF79B
:106C100043FC08A12046FFF73FFC2020A07110BDD7
:106C2000348900205465726D696E616C000000004B
:106C30005254540053454747455200000269C16809
:106C40008A4203D88068401A104400E0501A401E5F
:106C500070472DE9F047C4681746894606464FF04D
:106C600000083069A04201D9051B02E0B168201A72
:106C70000D1AB0686D1E001BA84200D80546BD4223
:106C800000D33D4670682A4620444946FFF7CCFBB6
:106C9000B0687F1B2C44A844A944A04200D1002422
:106CA000F460002FDDD14046BDE8F0872DE9F041CA
:106CB00004468846D4E90207C51BE16860681646A9
:106CC0000844B54206D94146FFF7AEFBB819E0606B
:106CD000BDE8F0812A464146FFF7A6FB761B08EB8C
:106CE000050132466068FFF79FFBE660F0E70000B1
:106CF0000FB4054B10B503A9044A029800F04AF8F6
:106D000010BC5DF814FB0000AF8B0200A0780020DF
:106D10000FB4084B10B504A902AA039800F03AF882
:106D2000044602A9002000F0D6F9204610BC5DF808
:106D300014FB0000D770020002E008C8121F08C14F
:106D4000002AFAD170477047002001E001C1121FEC
:106D5000002AFBD1704700000121202803DA81407E
:106D60000548014003E0402802DA2038814009B19B
:106D70000120704700207047FC06FFBD082806D29E
:106D800028B1012803D0042801D001207047002039
:106D9000704700002DE9FF4F8BB08846054600265E
:106DA00006E025280BD0DDE90D1290476D1C761CFE
:106DB00028780028F5D10FB03046BDE8F08F0024C8
:106DC000A146A2460122AE4900E0044315F8013F66
:106DD000203B02FA03F00842F7D128782A2810D085
:106DE0006FF02F022878A0F13001092915D809EB9E
:106DF000890102EB410144F0020400EB01096D1C22
:106E0000F0E758F8041B5FEA010903D544F4005485
:106E1000C9F1000944F002046D1C28782E2817D10E
:106E200015F8010F44F004042A280ED06FF02F0249
:106E30002878A0F1300109290AD80AEB8A0102EB6F
:106E4000410100EB010A6D1CF2E758F804AB6D1C20
:106E500028786C280FD006DC4C2817D068280DD075
:106E60006A2814D104E0742810D07A280FD10DE0DC
:106E700044F400140AE044F4801401E044F44014A3
:106E80006978814202D104F580146D1C6D1C28784C
:106E9000692865D006DC00288DD0632827D06428B7
:106EA00006D15DE06E2808D073282AD0752877D0E7
:106EB000DDE90D129047761CE0E0C4F30250022891
:106EC00009D003280DD0D8F8001004280DD00E608A
:106ED00008F10408D2E0D8F80010F217C1E9006206
:106EE000F6E7D8F800100E80F2E70E70F0E718F819
:106EF000041B8DF8001000208DF80100EB460120E6
:106F000003E058F804BB4FF0FF3061074FF0000773
:106F100001D40AE07F1C57450DDA8742FADB1BF8E3
:106F200007100029F6D106E07F1C8742FCDB1BF826
:106F300007100029F8D1DDE90D23A9EB07008146F0
:106F4000214600F0B1F83044C61904E0DDE90D1225
:106F50001BF8010B90477F1EF8D22146484688E077
:106F600058F8040BC4F302514FF00A0B032900D167
:106F700000B2042900D140B2002802DA40422D219B
:106F800002E0210505D52B218DF82410012104E014
:106F900006E0E10710D02021F6E708AF089113E0E2
:106FA00058F8040BC4F302514FF00A0B032900D127
:106FB00080B2042900D1C0B20021EEE75946FFF7A4
:106FC00074FA303107F8011D0028F7D1ADEB070046
:106FD00000F1200B600702D524F4803401E04FF06B
:106FE000010ADA4502DDAAEB0B0000E00020824630
:106FF00000EB0B0108980144A9EB01000A90E003A3
:1070000006D4DDE90D2321460A9800F04DF8064428
:107010004FF0000908E009A911F80900DDE90D1297
:10702000904709F10109761C08998945F3DBE003D3
:107030000CD5DDE90D2321460A9800F035F8064409
:1070400004E0DDE90D1230209047761CBAF1000112
:10705000AAF1010AF5DC05E0DDE90D1217F8010BD4
:107060009047761CBBF10001ABF1010BF4DC0A98F0
:107070002146DDE90D2300F005F806446D1C97E676
:10708000092801002DE9F041044600251E46174657
:10709000880404D405E039462020B0476D1C641EE6
:1070A000F9D52846BDE8F0812DE9F04104460025D8
:1070B0001E469046C80301D5302700E020278804EB
:1070C00004D505E041463846B0476D1C641EF9D52D
:1070D0002846BDE8F0810A68531C0B6010707047A9
:1070E00031B500252C462146684602F0F6F800B17D
:1070F0006D1C641C142CF6D3284638BD10B5012233
:107100000221002001F028F808B1072818D1072231
:107110000221012001F020F808B1072810D1002138
:107120000A22084601F018F808B1072808D10B22F6
:107130000121002001F010F808B1072800D100203B
:1071400010BD000070B50024084D05E0686810F817
:10715000340003F0BDFB641C28788442F6D3044855
:107160004068BDE8704000F0E7B9000048780020B2
:1071700008C6020070B50024064D06E068680121CB
:1071800010F8340003F0C8FB641C28788442F5D35F
:10719000002070BD48780020F8B515460C4606461C
:1071A000052A01D20720F8BD03F0B2FC18B903F09C
:1071B00077FC0028F7D1124900224E600C708D60D8
:1071C000C1E90422C1E906220E4D0DE006EBC40020
:1071D0002968009181788DF8011000780A4A694683
:1071E00003F0ECFB0028DED1641EE4B2EED2BDE871
:1071F000F84004480021054A001D00F01DB90000B8
:107200004878002008C60200BD8B020031860200CB
:107210002DE9FE4314460F46804672B602F030FF59
:1072200002F05AFD0028FBD10125274EB8F1010FCD
:1072300028D06FF4805118EB010028D0B0F5405FE2
:107240002CD06FF44051C84208D13088238805EB18
:1072500000401EA1626802F05AFE06E030883A46FD
:1072600005EB004020A102F04BFE25480068C00756
:1072700000D000BE224603B039464046BDE8F04388
:1072800000F080B830881FA105EB004003E0308893
:1072900024A105EB004002F02FFEE6E7A06803F012
:1072A000B5FA0346D4E90001CDE900100297308811
:1072B00025A105EB0040A26802F03AFE30882CA11F
:1072C00005EB0040E7E7000060790020415353459B
:1072D0005254494F4E204641494C45442061742048
:1072E00025733A2575000000554E4B4E4F574E20E2
:1072F0004641554C54206174203078253038580070
:10730000F0ED00E0534F46544445564943453A207A
:10731000415353455254494F4E204641494C4544F0
:1073200000000000534F46544445564943453A2017
:10733000494E56414C4944204D454D4F52592041EC
:1073400043434553530000004552524F5220257588
:10735000205B25735D2061742025733A25750D0A25
:1073600050432061743A203078253038780000008E
:10737000456E64206F66206572726F722072657050
:107380006F72740008B501238DF800309DF800304D
:10739000144B186059609A606FF48041401807D010
:1073A00001280FD1DA60D86800889861D86807E0B2
:1073B0001A611869806858611869006898611869CD
:1073C0004068D861186858689868D868186958691A
:1073D0009869D86972B600BF9DF800000028FBD1FB
:1073E00062B608BD0C82002010B58268C368934263
:1073F00003D001F0C9FB002010BD052010BD29B14C
:1074000012B1531E134203D0092070470E2070475B
:107410000160838000218160C1600846704710B51B
:107420008268C3689A1A83889A4203D801F0B6FB2F
:10743000002010BD042010BD074B9B7823B12AB15A
:1074400020B10068037C1BB10820704707207047FB
:1074500041744261002070472C82002070B504F016
:1074600061FA104800240B21047044700E4D8170A5
:1074700014206C602C706C70FFF71EF9072114202B
:10748000FFF73BF91420FFF722F9084804600721B1
:107490001120FFF732F90548001F0068A86000209E
:1074A00070BD00002C820020687800200815014083
:1074B0002DE9FC47DFF8789099F8023073B368B390
:1074C000052902D20720BDE8FC87436933B3437C1A
:1074D000012B25D0002704460025884616468DF846
:1074E0000050684600F0EEF801A804F0F3FFC8B1C0
:1074F000012101700F4944600968C0E90218C0E920
:1075000004769DF8040089F801009DF8000000F061
:10751000FDF81420FFF7E6F82846D4E70820D2E764
:107520000F46D8E704259DF8000000F0EFF8F3E7D8
:107530002C820020041501400649897839B130B108
:10754000416921B100210174022104F0BDBC082071
:10755000704700002C82002070B50B4E01460B488E
:10756000B578FFF741FF04465DB10020B070711C93
:107570000122C81D02F094F818B105A2CE21FEF731
:1075800049FE204670BD0000A4780020F083002052
:107590002E2E5C2E2E5C2E2E5C2E2E5C2E2E5C2E25
:1075A0002E5C636F6D706F6E656E74735C6C696278
:1075B0007261726965735C756172745C6170705F31
:1075C000756172745F6669666F2E6300F0B5244E54
:1075D00089B01F460D00044672603FD0A888296814
:1075E00082B22048FFF70BFF002835D1A889A9688F
:1075F00082B21C481030FFF702FF00282CD1202255
:1076000019496846FEF710FF60690690207C00B1BA
:1076100001208DF814008DF81C70607C00B10E20E4
:107620008DF81500E0680290A06803902068019032
:10763000606800900A480D4A6946083001F0FCFF76
:10764000002809D1B0702068401C05D004490122EF
:10765000491CC81D02F024F809B0F0BD0720FBE763
:10766000A4780020F083002098C7020005C1020022
:1076700010B501461048FFF7D2FE040019D10F489B
:107680000F4A0178515C19B1001D03F027FD02E09B
:107690000C3003F00BFC60B9084907480839FFF7C4
:1076A000A3FE30B9054901220839044802F008F860
:1076B0000446204610BD000000840020AC78002065
:1076C0002478002030B5EFF3108172B60D4A94682B
:1076D000012324B10370002900D162B630BD93604C
:1076E0004FF0E023D3F88051074C25401560C3F8D4
:1076F0008041D3F8844154605A17C3F88421002292
:107700000270E8E738830020FC06FFBD0B498A6859
:10771000002A11D000280FD1EFF3108072B60B6849
:107720004FF0E022C2F800314B68C2F80431002269
:107730008A60002800D162B67047000038830020BC
:107740002DE9F041064608680C46411C4FF0A04761
:107750004FF0010506D005FA00F1C7F808152068BA
:1077600002F094F96068411C02D0002102F074F923
:107770003168A069C1F82405607D227D316810431D
:10778000C1F86C05D4E900123068C0F81425C0F8BF
:107790000C15207D012815D1A068411C02D00021C4
:1077A00002F05AF9E068411C05D08540C7F8085539
:1077B000E06802F06BF9D4E902123068C0F80825DD
:1077C000C0F81015BDE8F0812DE9F04106460868C3
:1077D0000C46411C4FF0A0474FF0010506D005FABA
:1077E00000F1C7F80815206802F05AF96068411CDA
:1077F00002D0002102F039F93168A069C1F82405EE
:10780000607D217D32680843C2F86C05D4E900121E
:107810003068C0F80C15C0F81425207D012815D15A
:10782000A068411C02D0002102F01FF9E068411C51
:1078300005D08540C7F80855E06802F031F9D4E971
:1078400002123068C0F80825C0F81015BDE8F081B4
:1078500078210148FEF701BEFC7C0020F8B5064601
:107860004FF000001500ADF8000015D009236A465E
:10787000304600F015F80446BDF80000064458B143
:1078800054B12846FEF7F4FDA04205D12246314608
:107890002846FEF7F4FD08B10020F8BD0120F8BD30
:1078A00070B588B182B10024158803E0065D641CC0
:1078B0003444A4B2A54203D8061976789E4201D07A
:1078C0008C42F3D38C4201D3002070BDA11C1180E7
:1078D000005D401E80B270BD054808B5C1680091CA
:1078E0008168684601F01AFD0098FFF7F9FB08BDB2
:1078F000FC7C0020FFF7ACBF70B540B10C4D29787F
:1079000039B1044603F0F2FF28B1002070BD0E200B
:1079100070BD082070BDE868062807D205492268B6
:1079200001EB8001401C0A60E860EEE7042070BDB6
:107930000C780020747D002040B10549002201230D
:10794000CA600B70C1E90102104670470E207047F3
:107950000C78002070B504002DD000292BD02048D1
:107960000078002827D020880D46112815D030280F
:1079700004D0322807D033281ED109E0211D284623
:1079800003F058FE18E0211D284603F0AFFC13E079
:10799000211D284603F084FD0EE0A088B5F8CA1228
:1079A000884209D1002085F8C70285F8C8024FF641
:1079B000FF70A5F8CA0270BD95F8C8020028FAD079
:1079C00020883028F7D34F28F5D8A088B5F8CA12F8
:1079D0008842F0D12846BDE8704000F0FFBE0000AC
:1079E0000C78002048B1084A137843B1D26832B10C
:1079F00090F8C7222AB1112070470E207047082046
:107A0000704700F0EBBE00000C7800202DE9F84F25
:107A10000188041D0026804D1F2979D012DC7F4883
:107A20004FF003031029008803EB004022D01129F6
:107A30006FD01B296ED01D296CD1201DBDE8F84FD9
:107A400003F05ABB21297DD03B297CD0562961D136
:107A50008088132176DF0746208800F035FE2088D5
:107A60002E54380056D06EA24FF41F71BDE8F84F67
:107A7000FEF7D0BB22889A466DA102F041FA208819
:107A8000042805D366A24FF4F5710020FEF7C2FB6F
:107A90002188744F002207EB011000F00DFA5E49B7
:107AA00081461C390126486901F1180830B10128C6
:107AB00012D002281ED003282DD039E022886A482F
:107AC00007EB02129060208808702E54042002F008
:107AD00002F888F800602BE02188644807EB011168
:107AE0008860218802206854052001F0F4FF88F89E
:107AF00001601DE021885E4807EB01118860218844
:107B0000062005F801A001F0E6FF88F802600FE00A
:107B10005CE03CE06EE02188564807EB011188608C
:107B2000218804206854072001F0D5FF88F80360FD
:107B30005FEA090004D03AA240F21221FEF76AFB84
:107B4000218801E04BE057E0334AB32048430C3230
:107B500002EB8000FFF746FF112805D020B130A2CC
:107B60004FF40671FEF756FB012000F0E3FAFFF731
:107B7000B3FE04284FF0000005D000F0DBFABDE8AA
:107B8000F84F03F039BFBDE8F84F00F0CBBA2379C6
:107B9000228839A102F0BBF9208800F095FD2088E9
:107BA0002E54FFF799FE50B9FFF7CCFA20B11CA272
:107BB00040F23921FEF72EFB012000F0B3FA03F06A
:107BC0001BFFBDE8F84F002000F0B4BA2088211D4B
:107BD00075DF00280ED012A240F25A2146E7009627
:107BE000808869468FDF002804D00DA240F266210C
:107BF000FEF710FBBDE8F88F8088132176DF07467B
:107C0000208800F061FD20882E543800F2D004A2B4
:107C100040F271212AE70000B46C00206079002056
:107C20002E2E5C2E2E5C2E2E5C6D61696E2E6300F6
:107C3000436F6E6E656374696F6E203078257820AF
:107C400065737461626C69736865642C2073746118
:107C50007274696E6720444220646973636F76654D
:107C600072792E00907C00208D88020035890200F8
:107C7000DD890200898A02004C42532063656E74DC
:107C800072616C206C696E6B203078257820646995
:107C900073636F6E6E6563746564202872656173CB
:107CA0006F6E3A20307825782900000010B51A4C04
:107CB0000188606810290ED011292BD1401E606008
:107CC00028D1FFF71BFA002824D02168002921D0F1
:107CD000BDE810400847D0B900210122084600F055
:107CE0003BFA08B107280FD107220221012000F03A
:107CF00033FA08B1072807D104220221002000F03E
:107D00002BFA20B1072802D0216801B188476068AA
:107D1000401C606010BD0000047800202DE9F04F89
:107D20000746858802883E48012197B08346102A7D
:107D300009D0112A4BD01A2A6ED1387AB1EB101F14
:107D400047D2012246E0364C083CA068C0430B9065
:107D500061680BA801F0E2FA0B990CA800F09AFBFD
:107D60002C220CA96846FEF75FFB0026E946A046D8
:107D700010E000BF09EB46005FF00004B0F804A07B
:107D800008EB84005146001D01F09CFA641C1D2C78
:107D9000F6D3761C0098B042ECD8142D07D317B058
:107DA000E321BDE8F04F1FA20420FEF733BA2946B5
:107DB000584601F09DFA294608F1040001F098FAAE
:107DC000F87B012828D016482946001D15E02946D1
:107DD0001AE000220221B1EB101F01D2012600E0BF
:107DE00000260F49083901F11000041D294682B10F
:107DF00001F07EFA36B12946204617B0BDE8F04FB3
:107E000001F076BA2946204617B0BDE8F04F01F0E0
:107E100059BA01F057FAF5E717B0BDE8F08F000046
:107E2000047D00202E2E5C2E2E5C2E2E5C2E2E5CD1
:107E30002E2E5C2E2E5C636F6D706F6E656E74738C
:107E40005C626C655C636F6D6D6F6E5C626C655FD0
:107E5000636F6E6E5F73746174652E630000000063
:107E600070B518B30288A2F57F41FF391CD0104CC1
:107E70004388104D206800EB8001401C00F0070093
:107E8000206005EB810102204B81C881081D08613B
:107E900000248C810120087208714C710A8088705E
:107EA00004F070F8204670BD082070BD0E2070BD33
:107EB0001C7800208C80002040B1018022B1116824
:107EC000C0F802109188C180002070470E207047D2
:107ED00030B5134D040085B02DCD8DE82D001DD09B
:107EE000E1B10868D0B100206080A080E0804FF64A
:107EF000FF7020800868A06004F10C01684662DF12
:107F0000002809D1207B8DF8120041F22350ADF8F2
:107F1000100004A8FFF7F0FC05B030BD0E20FBE711
:107F2000E0C5020000B585B0002924D0002822D089
:107F30000288112A2AD0382A1FD0392A1BD10A4692
:107F400009888388994216D141899388994212D130
:107F500002218DF800101188ADF80210017C8DF817
:107F6000041000F110010391C089ADF8100093686E
:107F700069461046984705B000BD0988808881424F
:107F8000F9D105B05DF804EB03F0FCBF0A888088E6
:107F90008242F0D14FF6FF70088000204880888030
:107FA000C880E8E770B518B30288A2F57F43FF3BAD
:107FB0001CD0104C104D236803EB83025B1C03F0B4
:107FC0000703236005EB8202C38853810123D38119
:107FD000141D14610024948102241472117100880C
:107FE0001080937003F0CEFF002070BD082070BD9C
:107FF0000E2070BD1C7800208C80002010B50A78FF
:1080000086B0002A3FD18A88A2F5A853233B3AD1F3
:108010008A79037B9A4236D101228DF800204A8862
:10802000ADF80220002217E002EBC20301EB43038C
:1080300033F80E4F04F6DC24B4F5005405D0012CBF
:1080400009D11B89ADF8083005E01C89ADF8064060
:108050005B89ADF80430521C0B7A9342E4D8018856
:10806000A1F57F42FF3A0BD0C18849B9818839B95F
:10807000418829B90199C0F80210BDF80810C180E3
:1080800082686946904706B010BD000008B502F04E
:10809000D7FA20B10D4A40F29F21FEF7BBF800202D
:1080A00000906946012002F00BF920B1074A40F226
:1080B000A521FEF7AFF8684602F0AEF9002804D01B
:1080C000024A40F2A921FEF7A5F808BDA8910200D6
:1080D0002DE9FC410646C0074FF000050ED0104FB9
:1080E00000240122385D009500231146019501F01E
:1080F0006BFC641C042CF4D300F024F8B0070DD5FD
:10810000074E0024361D0022305D032300951146E2
:10811000019501F059FC641C042CF4D3BDE8FC81EA
:1081200044C502000249085C012101F0E2BC0000E4
:1081300044C502000249085C002101F0DABC0000DD
:1081400044C5020010B500242046FFF7EBFF641C75
:10815000042CF9D310BD000070B50023042810D200
:108160000D4D00EB4004012A02D101290CD0002260
:10817000094E00EB4000304461B1012906D00229CC
:1081800006D00723184670BD0E30C2B22A55F9E753
:108190004270F7E78270F5E7EF7C00202DE9F843A5
:1081A0000546861C00208DF8000090460F464FF0D3
:1081B00001096846FFF786FA1B4C20683860D4E94D
:1081C0000001401AA16804F21C47081A0EE00121C0
:1081D000384601F09DF800F0FDFE0146384601F0FA
:1081E00097F8D4E90001401AA168081A401C864299
:1081F000EDD8B8F1000F03D0052065F3891002E037
:10820000062065F39F50A2682168114004EB8101AC
:10821000C8602068304420609DF80000FFF776FABF
:108220004846BDE8F88300001085002030B482681D
:108230000468531C8360A154D0E901128A4202D31E
:1082400030BC01F05ABA30BC70470000034803C884
:10825000814201D101207047002070471085002025
:1082600070B5114D03260C460D2808D00E280FD0EE
:10827000BDE870400DA240F2F521FDF7CBBF0846E6
:1082800000F010FE2888224606EB00400BA107E014
:10829000084600F007FE2888224606EB00400DA1A4
:1082A000BDE8704001F02CBE607900202E2E5C2EBF
:1082B0002E5C2E2E5C6D61696E2E63004C42532045
:1082C0007772697465204C4544207374617465202D
:1082D000256400004C4253207772697465204C4538
:1082E00044322073746174652025640005494FF0A1
:1082F000FF32082841F8202002D3084480F84820A3
:108300007047000040810020F0B54FF0FF3512B1FA
:108310000023082601E008230C260C4C05E000BFD2
:1083200054F823707F1C04D05B1CB342F8D328465A
:10833000F0BD26185DB286F8305044F82310002AAC
:10834000F5D1E11881F84800F1E7000040810020F4
:108350000249084490F93000704700004081002035
:1083600008B5024690F8C6020B4600EB8001C1EB4F
:10837000801002EB400092F8C52242B1521ED2B2E8
:1083800002EBC20100EB4102518A491C00E0C188A6
:10839000ADF800100089ADF80200694618469DDF6F
:1083A00008BD000070B5084C050009D010342168E4
:1083B000002907D008682060496828468847F6E702
:1083C0000834F4E770BD00002C810020054A01212B
:1083D00020B1012805D19170FFF7E4BF5170002052
:1083E000FAE770472C8100202DE9F05F26484168AC
:1083F000F1B3DFF898B00E688146DBF8004087687B
:108400008078E11B21F07F45ED1CB0B9DFF880805A
:108410004FF48030C8F84403C8F804031120FEF775
:108420004BF91120FEF753F94FF0010AC8F800A0EC
:108430002F2002F045FA89F802A0B54200D2354655
:10844000124BE8193C3320F07F401860DBF8001035
:108450005A46091B21F07F41001B20F07F40C91CB8
:1084600081420FD9106818602F2002F029FA00E02D
:1084700004E0BDE8F05F1120FEF734B9BDE8F05F1D
:1084800003F050BABDE8F09F687800200415014061
:108490000010014073B58CB00646002000900D9886
:1084A00080B100246D4621460DA800F016FF30B1C2
:1084B000009805EB400084800098401C0090641CEC
:1084C000142CF0D32C2269463046FDF7ADFF0EB0D8
:1084D00070BD0000F0B587B0074600200490ADF8ED
:1084E00010100590ADF812100190029001AA04A995
:1084F000384690DF060022D002F088F9114C03467E
:10850000012520883A4605EB00400F4901F0FFFCA9
:10851000BDF8042012B9BDF8060038B12088BDF8B6
:10852000063005EB004009A101F0F1FCBDF8082080
:108530002AB12088154905EB004001F0E1FC07B0A5
:108540003046F0BD2C79002034C902005468652003
:108550007265717565737465642054582F52582084
:108560007061636B6574206C656E677468206973F5
:1085700020746F6F206C6F6E672062792025752FD5
:108580002575206F63746574732E000080C9020026
:108590004188034A02EB011201461046FFF72EBD47
:1085A000907C00202DE9F843054690F8C6020F465E
:1085B00000EB8001C1EB801005EB400695F8C54249
:1085C000914604EBC40006EB40013279601C0A318D
:1085D000904226D16B460022284600F03BFC18B39F
:1085E00010E0401EA04201D1002004E004EBC400D2
:1085F00006EB40001C30804602466B46284600F0E1
:1086000029FC30B100203870694648469EDFBDE83D
:10861000F88395F8C5024146401C641C85F8C502E4
:10862000E4B23079A042DCD8012038700020EEE7B7
:108630002DE9F0470025DFF88C803CE060680021E0
:1086400000EBC506012032789146FDF7D9FED4E94A
:10865000062300EA020701EA030C57EA0C0728D0B8
:1086600082438B434846C4E9062302F00FFA32786E
:108670008246914601200021FDF7C2FED4E9042381
:1086800000EA020401EA03074A4650460021FDF7CA
:10869000B7FE44404F403C430BD17078012801D0D5
:1086A000012100E00021726881EA0A010AB148460E
:1086B00090476D1CEDB298F8000044468542BDD34A
:1086C000BDE8F0874878002070B5104900240D1FE0
:1086D000085C01280AD002280DD0032810D00428F5
:1086E00003D1072001F0FEF9EC7070BD042001F009
:1086F000F9F92C7070BD052001F0F4F96C7070BDB3
:10870000062001F0EFF9AC7070BD0000B46C0020E1
:108710002DE9F047894690F8C612904601EB810298
:10872000C2EB811100EB4107384603F0DFF8060089
:108730002FD0194CA06806282BD2184D762205EBB5
:10874000C0103946A0F80280001DFDF76DFE00271D
:10875000B9F1000F04D0A06805EBC010077004E069
:10876000A168022005EBC1110870A06805EBC011DB
:10877000401CCE67A060E16888420AD1002604E070
:1087800005EBC610C16F8847761CE0688642F7D3B8
:10879000A760BDE8F08700000C7800208C7D0020E9
:1087A00070B50E4690F8C612154601EB8102C2EB79
:1087B0008111A0B000EB410003F098F8040009D04B
:1087C0007C2205496846FDF72FFEADF80250684649
:1087D0000196A04720B070BD4CC5020070B50E4692
:1087E00004464FF43371FDF738FE11480025A4F814
:1087F000CA62856084F8C9520E4884F8C65284F86B
:10880000C552006820602246012130469BDF0121CD
:10881000112806D0002809D184F8C71284F8C8525C
:1088200003E084F8C71284F8C812002070BD00006D
:108830000C780020747D002010B50021024800F063
:1088400078FD80F3100010BD2C8900200E4910B572
:108850000A784C780023A24212D0521CD2B20A707D
:10886000022A00D10B70084A0B780C3252F82320F0
:1088700002608868104420F07F408860012010BDAD
:108880000360002010BD0000687800207CB504461D
:1088900008780D4601281DD0022839D1FDF794FF34
:1088A0001CA10246D1E90001CDE900011BA16846E7
:1088B000FEF72EFA00246E46305DFEF7D9FE641CEA
:1088C000062CF9DB4120FEF7D3FE3020FEF7D0FE68
:1088D000002417E0FEF74EFC18B112A2D421FDF7D8
:1088E00099FC2046FFF7BCFA002811D002B00DA277
:1088F000BDE87040D821FDF78DBCE868005DFEF74B
:10890000B7FE641C288AA042F7DC0A20FEF7B0FEFE
:108910007CBD00003030303030300000253036640F
:10892000000000002E2E5C2E2E5C2E2E5C6D6169E8
:108930006E2E63007CB5044608780D4601281DD0D4
:10894000022839D1FDF740FF1CA10246D1E9000100
:10895000CDE900011BA16846FEF7DAF900246E4656
:10896000305DFEF785FE641C062CF9DB4120FEF726
:108970007FFE3120FEF77CFE002417E0FEF7FAFBB5
:1089800018B112A2FA21FDF745FC2046FFF768FA5C
:10899000002811D002B00DA2BDE87040FE21FDF705
:1089A00039BCE868005DFEF763FE641C288AA042BB
:1089B000F7DC0A20FEF75CFE7CBD00003030303072
:1089C0003030000025303664000000002E2E5C2E72
:1089D0002E5C2E2E5C6D61696E2E63007CB50446A4
:1089E00008780D4601281DD002283BD1FDF7ECFE8A
:1089F0001DA10246D1E90001CDE900011CA1684694
:108A0000FEF786F900246E46305DFEF731FE641CE9
:108A1000062CF9DB4120FEF72BFE3220FEF728FE64
:108A2000002419E0FEF7A6FB20B113A24FF49071C9
:108A3000FDF7F0FB2046FFF713FA002812D002B032
:108A40000DA2BDE870404FF49271FDF7E3BBE868FA
:108A5000005DFEF70DFE641C288AA042F7DC0A20A8
:108A6000FEF706FE7CBD00003030303030300000B4
:108A700025303664000000002E2E5C2E2E5C2E2E3B
:108A80005C6D61696E2E63007CB5044608780D4606
:108A900001281DD002283BD1FDF796FE1DA10246FC
:108AA000D1E90001CDE900011CA16846FEF730F9CB
:108AB00000246E46305DFEF7DBFD641C062CF9DBFE
:108AC0004120FEF7D5FD3320FEF7D2FD002419E04A
:108AD000FEF750FB20B113A240F24711FDF79AFBBD
:108AE0002046FFF7BDF9002812D002B00DA2BDE864
:108AF000704040F24B11FDF78DBBE868005DFEF75A
:108B0000B7FD641C288AA042F7DC0A20FEF7B0FDFE
:108B10007CBD00003030303030300000253036640D
:108B2000000000002E2E5C2E2E5C2E2E5C6D6169E6
:108B30006E2E630030B50446006887B00D4680682D
:108B400000281FD018216846FDF787FC0195A06812
:108B50000590207910B1012810D107E001208DF88F
:108B6000000020690290E068039005E002208DF883
:108B70000000E0680003029060690490206881684A
:108B80006846884707B030BD826883881A4003680A
:108B90009A5C0A708168491C81607047C26883884A
:108BA0001A4003689954C168491CC160704710B5E8
:108BB0000446C0B2FEF75CFD204610BD2DE9F04131
:108BC0008046024601200021FDF71AFC1A4F054697
:108BD0000E467868FEF7B0FC00280CD1174CD4E99B
:108BE000062110462A4001EA06031A4305D0A8438D
:108BF000B143C4E90601BDE8F081404601F046FFFB
:108C000030B1D4E9040128433143C4E9040105E04B
:108C1000D4E90410A943B043C4E90410D4E906011F
:108C200028433143C4E90601A1687868BDE8F041F2
:108C30000022FEF73DBC000008C602004878002074
:108C40002DE9FC5F0E008346DDE90C47C6F100000C
:108C500098469246814600D40846012503E000BFAD
:108C600090FBFAF06D1C5045FADAA84500D945464C
:108C700024B1002E01DB780700D5641EB80702D5A9
:108C8000B8F1000F0AD0F80708D13CB1A54205D2CF
:108C900020215846641EFFF7C9FAF6E7002E02DAD3
:108CA0004E462D2102E0780703D52B215846FFF7C9
:108CB000BDFA07F0030002280BD1B8F1000F08D16C
:108CC0003CB1A54205D230215846641EFFF7AEFAEA
:108CD000F6E7CDE90047434652463146584603F091
:108CE0009FFBBDE8FC9F000070B50D460446006880
:108CF0004FF4887101F0AAFD4FF49071206801F0E3
:108D0000A5FD4FF49271206801F0A0FD4FF4A2710F
:108D1000206801F09BFD20681249C0F80413206808
:108D20006907000B40B2090E002806DA00F00F00B8
:108D300000F1E02080F8141D03E000F1E02080F84D
:108D4000001420680121000B40B200F01F02914086
:108D50004009800000F1E020C0F88012C0F8001146
:108D600070BD000010030200024600201268930745
:108D700002D0530702D47047500714D502F0030005
:108D8000012802D002280CD105E0C2F383100B6841
:108D9000801C184404E00223086803EB925210443C
:108DA000086001207047086800EB9253C2F38910F5
:108DB000401CEEE72DE9F0479146884604464FF403
:108DC00080354FF4A0760027DFF884A016E000BFBE
:108DD000D4F8040328420DD0A05958B1C4F8485320
:108DE000C4F808533146204601F05AFA5AF82810C0
:108DF000F8B28847361D6D00B6B27F1C4F45E7D3E9
:108E0000D4F804034FF4807110F0010F09D0D4F8A6
:108E1000000130B1204601F043FA5AF8281004202E
:108E20008847D4F804034FF4827110F0020F0CD07D
:108E3000D4F80401002808D0204601F031FA5AF88D
:108E40002810BDE8F04705200847BDE8F08700007E
:108E50004478002010B509892AB1D088491C814284
:108E600018D1002010BD90F8C62202EB8204C4EB9A
:108E7000821200EB420212899142F2D0491C198001
:108E800090F8C61201EB8102C2EB811100EB4100A8
:108E9000008902E01980D088401E5880012010BD52
:108EA0007047000010B501460548FFF77BF828B170
:108EB000A0F54051023901D0082800D1002010BD92
:108EC000907C0020F7210180172141800021017151
:108ED00041711B218171C171704700002DE9F0477C
:108EE000394E002780463D46DFF8E090D6F804A0D2
:108EF00057E003D00446D0F81C8035E099F80020F4
:108F000002EB4201521CD2B289F8002009EBC101E8
:108F100099F80230091D9A4201D189F80050486839
:108F20000A780446012A12D0022A02D0032A3BD131
:108F300008E002F099FF00B10127257434E00574C0
:108F4000C06900E070680028F9D170602CE0207CD6
:108F500050BB88686060C868A0600869E0604869C4
:108F6000A061F07800B165606268B168184B501A72
:108F700020F07F40984202D2A168084406E0881A97
:108F8000A16820F07F40814202D9081A206000E0E9
:108F9000256065600120A56020742046E56102F02F
:108FA00045FFB8F10000A4D199F8001099F801002C
:108FB0008142A3D117B97168514502D00120BDE8A3
:108FC000F0870020FBE70000687800202C8200205A
:108FD000FFFF7F002DE9FF410026234800F095F9AF
:108FE0002148001F074600F090F9204C606800906F
:108FF000A56800E000986946284004EB80000C302A
:10900000FFF7B2FE0028F5D101AA009901EA050395
:1090100004EB8303491CDB6842F82030401C0091BC
:109020000228F2D3019800F0030001280BD0022897
:1090300010D10198032101EB90500099BDF80A600E
:1090400001EB900005E00198BDF80A60C0F38310C1
:1090500008440090384600F055F908B10098606067
:1090600004B03046BDE8F08128890020108500203A
:109070008AB04FF40041002000F0BEFF20B14AA2A8
:109080004FF45A71FDF7C6F800F018FEFEF7E6F946
:1090900020B145A240F27331FDF7BCF8FDF79AFB11
:1090A000182245496846FDF7BFF9444806904449EF
:1090B0004FF48070CDE9070109900723414A06A9C2
:1090C0006846FEF783FA20B137A24FF46571FDF7C9
:1090D000A1F80120FEF7FCFF40F2666202213A4847
:1090E000FEF75AF820B130A240F20931FDF792F8AC
:1090F000042000F0C3FC042000F0F4FC052000F084
:10910000BDFC052000F0EEFC062000F0B7FC0620B8
:1091100000F0E8FC072000F0B1FC072000F0E2FCC2
:1091200001F088F820B120A240F25231FDF772F828
:10913000FEF7ACFF0021254800F070F920B11AA21B
:109140004FF45F71FDF766F82148FEF7F5FB20B19B
:1091500015A24FF45271FDF75DF81C4D1D48002417
:109160002C3540F29126009005EB04106946FEF77D
:10917000AFFE18B10CA23146FDF74CF8641C042C6C
:10918000F2D3FEF7B7FB0020FDF70EFB12A0FDF7B0
:10919000AFFD02F031FC00BF00F09EFD0028FBD1C6
:1091A00001F05CF8F8E700002E2E5C2E2E5C2E2ECF
:1091B0005C6D61696E2E63001CC50200647A00203C
:1091C000647B002009C00200F0770020647C00204E
:1091D00091850200A18E0200787878787878787886
:1091E0007878787878787878787878787800000067
:1091F0002DE9F047C7880446181D16468946B0FB7E
:10920000F7F1B0FBF7F207FB12009A193A44D21CAF
:10921000B2FBF7F2DDF820A001E02468491E002926
:10922000FBD13D1A8846B54216D818E0BAF1000FB6
:1092300005D0211809EB08002A46091D04E0204446
:1092400009EB08012A46001DFDF7EEF8002024680E
:10925000761BA844B74201D9354600E03D46002EB2
:10926000E4D1BDE8F087000030B5024659B100F006
:10927000EFFE0021074C09E004EB810315685B88D1
:10928000AB4202D11160002030BD491C8142F3D3B2
:10929000052030BD2879002010B50A8849888A4207
:1092A00003D1FDF707F8012010BD002010BD70B5F7
:1092B0000C460546FCF7E1FF002802D061882868CB
:1092C000084470BD01F01F0301229A40D2434909AE
:1092D00000EB8100114600F021B84A0950F8220045
:1092E00001F01F0201219140084000D00120704789
:1092F00001F01F0301229A40490900EB8100114649
:1093000000F01CB8002100F00FB8012100F016B8E1
:1093100008B56A46FDF723F8009808BD08B56A4607
:10932000FDF703F8009808BD08B56A46FCF7FDFF95
:1093300008BD08B56A46FCF7DFFF08BD08B56A46F8
:10934000FCF7E6FF009808BD08B56A46FDF714F87B
:10935000009808BD38B5044600258DF800506846D1
:10936000FEF7B0F921686268086890420ED9401E85
:1093700008600178A38AE26801FB0325227A21684C
:10938000101AC0B20A79824200D208719DF800001A
:10939000FEF7BCF9284638BD38B5054600208DF8E3
:1093A00000000C466846FEF78DF9E868A98A201A85
:1093B000B0FBF1F12A681068431C136001709DF83E
:1093C0000000FEF7A3F938BD10B530B1017A42684C
:1093D0000368891AC9B21A6006E00E2010BD03683E
:1093E0001A68541C1C601170491EC9B2F7D200687B
:1093F00000210171084610BDC20800F007030120DA
:10940000895C98400840704710B5C20800F0070317
:10941000885C01249C402043885410BD70B5040032
:1094200010D0F720A162208060801B2020710025D1
:1094300004EBC500801DFFF745FD6D1C042DF7D31F
:10944000002070BD0E2070BD2DE9F04185888EB0E2
:109450000C46042D7ED20188464E4FF00008242988
:1094600040D006DC102909D011290CD023295FD166
:1094700054E03A290DD055295AD12EE00146204614
:1094800001F0BEFF54E004EBC500801DFFF71AFD9C
:109490004EE0294604EBC107408937F8062F824287
:1094A00000D810467880172800D217207880A06A4C
:1094B00070B1787960B1D6E90002CDE90002ADF86B
:1094C00002107888ADF80400A26A204669469047E9
:1094D00087F8058087F804802AE00146204602F0DC
:1094E00057F825E0011D2C226846FCF79DFFBDF8CA
:1094F0000000BDF8042004EBC0014A73A26ABAB1AF
:10950000D6E90423CDE90B23ADF82E00487B8DF876
:109510003000A26A20460BA9904709E004EBC5037E
:10952000017A187B884200D201462846FEF7D2FF16
:1095300004EBC504A07A002818D0E1882846A5DFEE
:10954000012580B1112811D001F060F902460A48C6
:10955000008800E00AE00EB005EB0040BDE8F041F5
:1095600006A100F0CDBC84F80A80E5720EB0BDE81B
:10957000F0810000C8C502002C79002073645F628E
:109580006C655F67617474635F65786368616E675B
:10959000655F6D74755F72657175657374282920D8
:1095A00072657475726E65642025732E000000006C
:1095B00000F180400068002800D00120704708B505
:1095C00000F18040002101600068009008BD0000AB
:1095D00070B50B4C207808B185250FE00020A06005
:1095E00060602061E060074801F04CF9054601F039
:1095F00075F808B901F030F901202070284670BDD7
:109600002C810020CD83020038B500258DF8005054
:109610006846FEF757F8074CE068401EE060E068D7
:1096200010B901F03FF9A5709DF80000FEF76EF843
:1096300038BD00002C810020F0B50546047815489F
:1096400089B0164640F82420124A0869121DA2F17A
:10965000080742F82400487F385520226846FCF766
:10966000E3FE04942878385C48B10EB10A4A00E061
:1096700000226946281D01F031FC09B0F0BD0EB191
:10968000064A00E00022694605F10C0001F0DCFA10
:10969000F3E7000028780020FDC20200A5C1020007
:1096A00030B40378054CE35C1BB130BC001D01F005
:1096B0004BBC30BC0C3001F031BB000024780020E2
:1096C00030B40378054CE35C1BB130BC001D01F0E5
:1096D000BDBC30BC0C3001F097BB000024780020EA
:1096E0000FB408B50399002904D004AA00926A4671
:1096F00000F00FF801B05DF814FB10B58268044665
:10970000002A05D0D4E90403216898470020A0600E
:1097100010BD2DE9FC4791460C00804676D014F828
:10972000011B39B125290ED04046FEF77FFD207878
:109730000028F4D198F80C00002867D04046BDE816
:10974000FC47FFF7DABF0020012221782B291BD02C
:109750002D2902D0302908D102E040F0010001E0BB
:1097600040F00200641C002AEFD100252A290ED007
:109770002178A1F130020A2A11D205EB850201EB12
:109780004205641C303DF1E740F00400EAE7D9F8F7
:1097900000100B1DC9F800300968641C0D442178C5
:1097A00000232E290BD114F8011FA1F130020A2A3F
:1097B00005D203EB830201EB4203303BF3E76C2954
:1097C0000DD068290BD0692921D00BDC252918D0B0
:1097D000582931D063290ED0642915D117E014F827
:1097E000011FECE7702969D0732932D075291BD08D
:1097F000782909D120E0D9F80000011DC9F800102E
:1098000001784046FEF712FD641C90E76CE0D9F841
:1098100000100A1DC9F800200968CDE900500A228D
:109820004046FFF70DFAEFE7D9F800100A1DC9F816
:10983000002009680A2206E0D9F800100A1DC9F8BC
:10984000002009681022CDE90050404602F0E8FDF2
:10985000DAE7D9F8001000270A1DC9F800200E68C1
:10986000C00705D112E04046761C7F1CFEF7DEFCE7
:1098700031780029F7D104E0202140466D1EFEF723
:10988000D5FCBD42C0D9002DF6D1BDE74EB1304662
:10989000FCF7EEFD074604E0202140466D1EFEF772
:1098A000C5FCBD4206D9002DF6D103E04046761C2A
:1098B000FEF7BCFC31780029F8D1A5E7D9F8000003
:1098C000011DC9F80010056830214046FEF7AEFCC6
:1098D00078214046FEF7AAFC08200021CDE90001CE
:1098E000034610222946B0E7BDE8FC870448012161
:1098F0004174007A08B100207047012070470000D1
:10990000D0830020012801D0032808D10449002277
:1099100001284A7400D00020087401F097BF7047F6
:10992000D083002070B50246022801D0032A45D119
:10993000234C207A002841D0012833D0022831D18D
:1099400020480023022A006802D0032A2AD11BE003
:10995000E360017911B1012924D10DE0D0E9056559
:10996000711B4FF48056B14200D3314629448161C6
:109970004569A9420ED015E00169491C016142699F
:1099800091420FD1237213E0E168491CE16008297C
:1099900008D9E3602372022A0AD00D21FFF7CAF822
:1099A00001F04AFF607C28B1BDE8704000F09CBE29
:1099B0000021F3E7BDE8704001F048BF70BD000032
:1099C000D08300209078002070B541EA4201DDE9A3
:1099D00004564FF0A04441EA830141EA052104EB1B
:1099E000800041EA0641C0F8001770BD70B541EA39
:1099F0004201DDE904564FF0A04441EA830141EA07
:109A0000052104EB800041EA0641C0F8001770BD53
:109A100070B541EA4201DDE904564FF0A04441EA45
:109A2000830141EA052104EB800041EA0641C0F8C8
:109A3000001770BD70B541EA4201DDE904564FF0F0
:109A4000A04441EA830141EA052104EB800041EA98
:109A50000641C0F8001770BD1CB500220B460092ED
:109A600011460192FFF7D4FF1CBD1CB500220B4626
:109A7000009211460192FFF7DDFF1CBD4FF0A0429E
:109A800002EB80000321C0F8001770471CB50021CD
:109A900000910B46012201911146FFF7B9FF1CBD51
:109AA0001CB5002100910B46012201911146FFF7E0
:109AB000C1FF1CBD4FF0A04202EB8000D0F8002790
:109AC00022F44032C0F80027D0F8002742EA0141D2
:109AD000C0F8001770474FF0A04201218140C2F842
:109AE0000C1570474FF0A04201218140C2F80815C3
:109AF000704701224FF0A043824011B1C3F80825FE
:109B00007047C3F80C25704718B5084B6C460144E4
:109B10001B68009306E000BF54F82030D3F81035DE
:109B2000401C08C28142F7D818BD0000FCC50200E5
:109B3000034908B50844002101600068009008BD91
:109B40000060004002494058012800D000207047C2
:109B50000060004030B5124B01460020D3F810449D
:109B6000224609E0157A854205D1401C0A28F7DB18
:109B70004FF0FF3030BD5268002AF3D1421CF9D0BB
:109B80000872D3F810242AB152684A60D3F810241E
:109B9000516030BD0022C3F810144A6030BD00008F
:109BA000108500207047FCF74DBE704708B5034A8A
:109BB00000924023024A00F005F808BD45BB0200B0
:109BC00010840020F0B595B01C4615460F46084697
:109BD0001A9E00F00DFB182109A8FCF73EFC0E961A
:109BE000CDE909540023082203A9384600F015FBEB
:109BF00005980690BDF81000ADF81C00BDF81200E5
:109C0000ADF81E0000208DF821000398082600F012
:109C10000300012802D0022818D032E0039833460E
:109C2000850AC0F3C2008DF8200003980FA9C0F385
:109C30008314A200384600F0F0FA09A8009006ABA1
:109C400022460FA9284600F02FFA1AE00398840D47
:109C5000C0F3C2008DF82000082C01D2254600E098
:109C6000082533462A460FA9384600F0D6FA2E4476
:109C7000641B09AB06AA29460FA800F067F9002C5F
:109C8000EAD1384600F0BAFA15B0F0BD0A4A012907
:109C900002EBC00007D0022907D0032907D004290E
:109CA00007D00020704702207047042070470079D9
:109CB0007047407970470000D8D0020010B5FFF718
:109CC00072FF04210348FFF745FF02490120487253
:109CD00010BD0000C47800202DE9F04F8DB0FEF7D4
:109CE000B5FA18B100200DB0BDE8F08F7A4C4FF0F6
:109CF000000BC4F818B4BFF34F8F60680290A568DA
:109D0000D846284004EB800008E021680298814290
:109D100001D86160E6E7284004EB80000C3002A91E
:109D2000FFF722F80028F0D105AA029901EA0503FD
:109D300004EB8303491CDB6842F82030401C02918D
:109D40000228F2D3059800F00300022802D001286F
:109D50004ED0A9E005985022810D8946B2EB905F64
:109D600000D850210E4666F39F50059008315B489D
:109D700000F0F5F9070079D000F03AFA43460822DE
:109D800005A9384600F04FFA029908F1080A29405F
:109D9000681A8000001D864223D94F4D0C3530B122
:109DA000C2B204EB8101301A90460C3104E029461E
:109DB000F2B2002590462846C6B25346384600F017
:109DC00032FA0AEB08032DB1324629464FEA070062
:109DD00000F029FA029909F1030001EB90000290CA
:109DE0003BE004EB81015346324638460C31EFE745
:109DF0000598C0F38310062800D30620059960F368
:109E00008911C1F38310801C05918100334800F053
:109E1000A6F9070048D000F0EBF94346082205A94F
:109E2000384600F000FA08F1080800260FE0029812
:109E3000434600EA0501401C04EB81010290042224
:109E400038460C3100F0EFF908F10408761C05984B
:109E5000C0F38310B042EAD847B1D4F81054D4F814
:109E6000180468B1384600F0C9F92FE01CE0687AA0
:109E7000012804D12A6828463946126890476D683F
:109E8000002DF4D1384600F0B9F98DF800B06846DD
:109E9000FDF718FCD4F8180408B9029860609DF822
:109EA0000000FDF733FC11E0D4F8104404E0216811
:109EB0002046896888476468002CF8D10848022148
:109EC000008801EB004007A100F016F8FEF7BEF98C
:109ED00080F0010007E700001085002068D1020033
:109EE000607900204261636B656E647320666C75F7
:109EF000736865640000000000231A4601F0DABEB2
:109F000008B5012300926A4601F0D4FE08BD1CB5D5
:109F1000CDE9002302236A4601F0CCFE1CBD3EB50C
:109F2000069C8DE81C0003236A4601F0C3FE3EBD7B
:109F300070B586B00DF1280C9CE870008DE87C00AF
:109F400005236A4601F0B6FE06B070BD2DE9F04764
:109F50000E4680461C46924608293ED894F80C903E
:109F6000002020731946104601F00EFC0025B54272
:109F700006D218F805201AA12046FFF7B1FB03E02E
:109F800019A12046FFF7ACFB6D1C082DEFD317A1DC
:109F90002046FFF7A5FB0025B54210D218F8057042
:109FA000FCF73EFA0068C05D10F03E0F01D03A4663
:109FB00000E02E220EA12046FFF792FB03E00DA148
:109FC0002046FFF78DFB6D1C082DE5D301222146AD
:109FD000504601F0BBFB84F80C90BDE8F087000010
:109FE0002025303278000000202020007C00000076
:109FF0002563000020000000104810B5FF2181609B
:10A00000002101604160C0F81814C0F8141480F8F1
:10A0100020140B4800F0F0F800280DD109480A4937
:10A020000A4B401AC108002003E000BF23F82000BB
:10A03000401C8842FAD3002010BD0000108500208B
:10A0400068D1020068D10200D8D00200287900202F
:10A0500002480349401AC0087047000068D1020056
:10A06000D8D0020013B56846FFF7FEF808B100200B
:10A070001CBD0248009950F831001CBDD8D0020028
:10A0800070B508480125D0F8104480F8205405E048
:10A09000657221682046496888476468002CF7D1BA
:10A0A00070BD0000108500202DE9FF4781460C9D02
:10A0B00000200C462F7B28739846164629461846E2
:10A0C00001F062FB072E42D2DFE806F004090F160A
:10A0D0001F2A360049462846FFF702FB37E049466B
:10A0E00028462268FFF7FCFA31E0D4E9002349460C
:10A0F0002846FFF7F5FA2AE0A0680090D4E900238B
:10A1000049462846FFF7ECFA21E0D4E90201CDE9FF
:10A110000001D4E9002349462846FFF7E1FA16E09A
:10A1200004F1080007C88DE80700D4E90023494678
:10A130002846FFF7D5FA0AE004F108000FC88DE8B9
:10A140000F00D4E9002349462846FFF7C9FA002248
:10A150002946404601F0FAFA2F73BDE8FF872DE942
:10A16000F041858A80462D1F4819C01CB0FBF5F0D0
:10A17000C6B24046FFF7EEF8041E19D00020207149
:10A1800001206071E58000272546761EC4F8008016
:10A190000BE04046FFF7DEF860B16179491C617160
:10A1A000286005467F1CC0F80080B742F1D32046E6
:10A1B000BDE8F081204600F002F80020F8E72DE924
:10A1C000F041457901466B1E002201E00968521CEE
:10A1D0009A42FBD30F680146002605E038460C681A
:10A1E000FFF7DAF82146761CAE42F7D3BDE8F081DE
:10A1F0000121001DFFF78CB8FFF7E6B810B5044643
:10A200000121001DFFF7A0F810F0FF0F04D1204638
:10A21000BDE81040FFF7D3BF10BD38B5012400944E
:10A22000FEF7E6FF38BD38B500240094FEF7E0FFE6
:10A2300038BD0000064910B500204870091D0860AF
:10A24000BFF35F8F0349044800F09CFA002010BD63
:10A250009878002050C60200E483002008B5002052
:10A260008DF800006846FDF72DFAF1EE100A20F097
:10A270009F00E1EE100ABFF35F8F08494020C1F84C
:10A2800080029DF80000FDF741FA00F027FA08B1BE
:10A2900041DF08BD20BF40BF20BF08BD04E000E093
:10A2A00008B5002242504058009008BD20B1034933
:10A2B00009680160002070470E20704750C80200F6
:10A2C0002DE9FE4306460D460846FFF7EFFF00283E
:10A2D0007ED18046CDF80080CDF8048002208DF834
:10A2E00000604FF00409ADF80400CDF808808DF847
:10A2F0000290694620202A6869DF404F012440B15E
:10A3000000F084FA024638883D4904EB0040FFF72C
:10A31000F7FDCDF800808DF801808DF80290CDF822
:10A320000480CDF808808DF80340694640202A68F3
:10A3300069DF40B100F06AFA02463888314904EB1F
:10A340000040FFF7DDFDCDF800808DF80060F720BC
:10A35000ADF80200CDF80480CDF8088069462320CE
:10A360002A6869DF40B100F051FA02463888264970
:10A3700004EB0040FFF7C4FDCDF80080CDF8048069
:10A38000CDF808808DF800404646694601202A68CD
:10A3900069DF40B100F03AFA024638881B4904EB05
:10A3A0000040FFF7ADFD4FF4B060009001960296BB
:10A3B0006946A1202A6869DF40B100F027FA024609
:10A3C0003888134904EB0040FFF79AFD009600E03F
:10A3D00012E0019602968DF800606946A0202A6876
:10A3E00069DF40B100F012FA02463888094904EBEF
:10A3F0000040FFF785FD0020BDE8FE83687900205E
:10A4000020CF020068CF0200B4CF020080CE02004D
:10A41000CCCE02002CCE02002DE9F0410446D0F84B
:10A42000008060DF2168194D074641451CD9288806
:10A43000022606EB004016A1FFF75EFD2888424683
:10A4400006EB00401EA12368FFF761FDF006D0F87F
:10A450000C012168800200F10050421A288825A1D1
:10A4600006EB0040FFF74CFD012467B1384600F0D1
:10A47000CDF9024628882AA104EB0040FFF740FDF1
:10A480003846BDE8F0812E480470F9E7687900206D
:10A49000496E73756666696369656E742052414DD5
:10A4A00020616C6C6F636174656420666F722074E8
:10A4B000686520536F66744465766963652E000095
:10A4C0004368616E6765207468652052414D207352
:10A4D00074617274206C6F636174696F6E20667250
:10A4E0006F6D203078257820746F20307825782E95
:10A4F000000000004D6178696D756D2052414D205E
:10A5000073697A6520666F72206170706C6963612F
:10A5100074696F6E20697320307825782E000000F2
:10A5200073645F626C655F656E61626C652829208B
:10A5300072657475726E65642025732E00000000CC
:10A540002379002030B51748ADF5017D007800284B
:10A5500025D04FF4FA7400BFADF8004280A96846D8
:10A5600061DF50B105281AD00DF5017D0EA2BDE8BE
:10A57000304040F23911FBF74DBE6D461A497DA8B7
:10A5800000F000F907E000BFD0E90021284690471D
:10A590007DA800F00EF97F980028DDD0F4E70DF5D6
:10A5A000017D30BD237900202E2E5C2E2E5C2E2EB8
:10A5B0005C2E2E5C2E2E5C2E2E5C636F6D706F6E8B
:10A5C000656E74735C736F66746465766963655CED
:10A5D000636F6D6D6F6E5C6E72665F7364685F62F1
:10A5E0006C652E630000000054C80200F8B5134CDF
:10A5F0002078C0B10120A07001F076FA112814D0A3
:10A60000022001F089FA00258DF800506846FDF718
:10A6100059F811DF064625709DF80000FDF776F821
:10A620002EB13046F8BD0820F8BD0020F8BDA57059
:10A6300001F0BCFA032001F06FFAF6E72079002060
:10A640007CB51A4C207808B108207CBD0120A07090
:10A65000002001F049FA112819D0002001F05CFA1D
:10A6600013480026006801908DF800606846FDF7E9
:10A6700029F8104901A810DF05000AD00020207039
:10A680009DF80000FDF742F82DB128467CBD002062
:10A690007CBD0120F3E7A670667001F051FB01F06C
:10A6A000C1FA012001F038FAF1E70000207900201A
:10A6B000E8C70200117202000EB50749684600F0B3
:10A6C00061F805E0D0E900108847684600F071F8AD
:10A6D00002980028F6D10EBD04C802000148007897
:10A6E00070470000207900200548817819B1007872
:10A6F00018B1FFF77BBF08207047FFF7A1BF00002C
:10A70000207900201FB568464BDF40B1052816D0E0
:10A7100004B00BA2BDE810406B21FBF77BBD1849CC
:10A7200001A800F02FF806E0D0E90021009890473A
:10A7300001A800F03EF803980028E4D0F4E71FBD1C
:10A740002E2E5C2E2E5C2E2E5C2E2E5C2E2E5C2E43
:10A750002E5C636F6D706F6E656E74735C736F6685
:10A76000746465766963655C636F6D6D6F6E5C6E56
:10A7700072665F7364685F736F632E63000000002E
:10A7800070C80200016009684160AFF3008010B535
:10A79000D0E900215368994201D1002104E0D1E9B8
:10A7A0000034A34202D01946816010BD08314160D7
:10A7B000F0E7816800290BD0026892680A44826041
:10A7C00041684B689A4203D108314160FFF7DFBF0F
:10A7D000704700000C4A10B502F594730EE0991A08
:10A7E000C91001EBD171491002EBC1010C68844220
:10A7F00001D90B4602E005D201F108029A42EED3DC
:10A80000002010BD486810BD70C6020000B5FFF7FB
:10A81000E1FF002800D1014800BD00005CC6020035
:10A820004058002800D00120704708B5002242504F
:10A830004058009008BDD0F80403084000D0012023
:10A8400070474058002800D00120704708B500220A
:10A8500042504058009008BD08480068012110F09F
:10A86000010F08D14FF0E020E02280F80024C0F86A
:10A870008012C0F8001102480160704700E100E05A
:10A88000180500400649024600200B790BB18520CF
:10A8900070470A6001220A7100224A717047000065
:10A8A0003078002004490120086004480168C1F3A1
:10A8B00000410029FAD170470C0000401804004004
:10A8C000002802D0014980010847704711C60200E4
:10A8D00010B5044600F022FF28B12046BDE8104024
:10A8E0000021FFF7E7B8204600F024FF00280FD032
:10A8F0002046FDF72DFD074A02EB8001D1F8103507
:10A9000023F00103C1F8103501218140C2F808137A
:10A9100010BD0000006000402DE9F041884605466A
:10A9200000F0FCFE234E002828461AD0FDF710FD4B
:10A93000304490F848008009032802D001280ED046
:10A9400007E04FF0A040D0F81005E84010F0010FEC
:10A9500005D003212846BDE8F041FFF7ABB802213E
:10A96000F8E700F0E7FE002822D02846FDF7F0FCCB
:10A9700004464FF4807000EB84000F4F81B207EB68
:10A980008400D0F8102542F00102C0F810250846D6
:10A99000FFF7CEF8B8F1000F0AD02846FDF7D8FC33
:10A9A00056F82000002803D00120A040C7F8040377
:10A9B000BDE8F08140810020006000402DE9FC41AD
:10A9C000DFF8BC80044608EB0400002790F9300053
:10A9D0001346C0170E46401C01D008274CE0B07843
:10A9E0001946C0F340022046FDF78EFC0546401C88
:10A9F00041D0B078410719D4C0070AD04FF0A04029
:10AA000000EB8401D1F8000720F00200C1F8000734
:10AA100007E000217378204600910A460191FEF775
:10AA2000E5FF174920465431FEF7EEFCB078800769
:10AA300018D51448317800EB8500D0F81025124B5A
:10AA40001A40C0F810254FF4F8524FF4403302EA90
:10AA5000042203EA01410A43D0F810150A43C0F862
:10AA6000102509E008EB0500327810F8481F41EA8C
:10AA70008211017000E004273846BDE8FC81000027
:10AA80004081002000600040FFE0FCFF4FF0A0414B
:10AA9000D1F81015C14011F0010000D0012070471D
:10AAA00070B5184D95F8580008B1082070BD002009
:10AAB000411E2A18401CC0B282F830102028F8D35A
:10AAC00000242046FDF712FC641CE4B20C2CF8D3E1
:10AAD00000240D49E0206C6581F800040126402027
:10AAE000891FC1F88002C1F800014FF4BE70FFF762
:10AAF0001FF80649F007C1F8040385F8586020469E
:10AB000070BD00004081002006E000E000600040D1
:10AB1000034890F85800002800D00120704700003A
:10AB2000408100200121B1EB507F01D1012070470D
:10AB30000020704738B50D4600F072FE040014D0B6
:10AB400000208DF800006846FCF7BCFD207928B194
:10AB50009DF80000FCF7DAFD112038BD01202560CA
:10AB600020719DF80000FCF7D1FD002038BD0000E9
:10AB7000016801220A604079024A00EB400002218C
:10AB8000115470474078002070B54379204C44F848
:10AB900023204279231F02EB42029A5C0AB108206B
:10ABA00070BD90F904208C78002A4FEA441406DA2C
:10ABB00002F00F0202F1E02282F8144D03E002F1EC
:10ABC000E02282F8004490F90420012502F01F06DB
:10ABD00005FA06F45209920002F1E022C2F880421E
:10ABE000C2F8004102680C88C2F8084544790A7925
:10ABF00004EB44041C4462704279C97802EB4202BF
:10AC00001A449170407900EB40001D54002070BD43
:10AC10004478002070B50E4605464FF4807101243B
:10AC20000068FFF73DFB2868C0F84443002E02D0BF
:10AC30002868C0F8044370BD0149024801F0CABA4F
:10AC40009C810020002000402DE9F041054600795C
:10AC500016460F4600EB40012D4A01EBC00102EB06
:10AC6000810494F82A1011B10820BDE8F081294927
:10AC700051F820102868FFF75DFF08B11120F4E7B4
:10AC800039462846FCF75CFD666038692060300074
:10AC90004FF001062FD03F7F4FF48E712868FFF7E9
:10ACA000C4FD4FF4A2712868FFF7BFFD28681A4958
:10ACB000C0F8041328684FEA4711000B40B200287F
:10ACC00006DA00F00F0000F1E02080F8141D03E028
:10ACD00000F1E02080F800142868000B40B200F07A
:10ACE0001F0206FA02F14009800000F1E020C0F8DE
:10ACF0008012C0F8001128680421C0F80015002057
:10AD0000A061E06184F8290044F8140FA675ACE74F
:10AD10009C81002000C60200800002002DE9F05F47
:10AD2000054600794FF4017600EB400303EBC000C9
:10AD3000344B03EB80040020636813B12B68C3F825
:10AD40000863A3694FF000096BB1E06938B160682E
:10AD500010B12868C0F804631120BDE8F09FE261DB
:10AD60000120216105E0C4F82490A261E160C4F8EB
:10AD70001C9094F82910014302D1284600F02CFEC3
:10AD800060680028286803D0C0F804630020E4E766
:10AD90004FF4A2763146FFF748FDB2464FF4927B5E
:10ADA00059462868FFF73CFD06464FF48471286831
:10ADB000FFF736FD804651462868FFF731FD07460C
:10ADC00048EA07003043EBD056EA070007D1214696
:10ADD000286800F0D1FDA169606A8142E0D8C4F81A
:10ADE00018900EB10320B8E70FB10F20B5E794F823
:10ADF000291001200029296801D00860C6E74860B1
:10AE0000C4E700009C8100202DE9F0470546007949
:10AE10000B4600EB400101EBC000234901EB80042D
:10AE2000284600F043F810B11120BDE8F0874FF03C
:10AE30000008C4F82080A360626184F828804FF481
:10AE40008E76474631462868FFF7EFFC28684FF0BA
:10AE50000109C0F808902146286801F0B7F8606839
:10AE600000BBD5F800A00EE094F8280008B10F2729
:10AE700016E031465046FFF7D3FC0028F4D02146B7
:10AE8000504601F0A3F8216A60698142F1D331464E
:10AE90002868FFF7C5FC0028F9D02868C0F80C9096
:10AEA000C4F814803846C0E79C810020007900EB8C
:10AEB000400101EBC000044901EB8000406900281B
:10AEC00000D00120704700009C8100200149024809
:10AED00001F02CBAC8810020002000402DE9F0418B
:10AEE0000546164600790F46154A00EBC00102EBF5
:10AEF000810494F8201011B10820BDE8F0811149B7
:10AF000051F820102868FFF715FE08B11120F4E76A
:10AF100039462846FCF758FC6660386920601EB147
:10AF2000397F2846FDF7E0FE28680821C0F80015A3
:10AF30000020A061E0610121606184F82010DCE75D
:10AF4000C881002004C602002DE9F05F04460079A4
:10AF50000E4600EBC001DFF8F0A017460AEB8105B2
:10AF60003046FFF7DFFDB0B168684FF000084FF4DE
:10AF7000047910B12168C1F80893A8694FF0000B5B
:10AF800080B1E86948B1686810B12068C0F80493DE
:10AF90001120BDE8F09F1020FBE7EF614FF00108A2
:10AFA0002E6102E0EE60C5E9067B00254FF4887152
:10AFB0002068FFF74BFC4FF4A2712068FFF746FCB6
:10AFC0002068C0F83465C0F838752068B8F1000F03
:10AFD00012D0D0F8001241F02001C0F80012207900
:10AFE000D04600EBC0010AEB8100406838B1206810
:10AFF000C0F804932846CCE701210160EFE74FF445
:10B00000887A4FF4A27951462068FFF71AFC074668
:10B0100049462068FFF715FC06464FF492712068F8
:10B02000FFF70FFC014647EA06000843EBD0227900
:10B0300002EBC20308EB8302C2F818B001B103258A
:10B04000002ED7D00F25D5E7C88100202DE9F04785
:10B0500004460E460079204900EBC00001EB800554
:10B0600017463046FFF75EFD30B1204600F036F857
:10B0700020B11120BDE8F0871020FBE76F61AE60C2
:10B080004FF49076002731462068FFF7DFFB4FF43E
:10B09000AC7841462068FFF7D9FB2068AA68696947
:10B0A000C0F84425C0F8481520680121816068680F
:10B0B00078B9B14649462068FFF7C3FB06464146CA
:10B0C0002068FFF7BEFB0643F4D000B10F27002035
:10B0D00068613846CEE70000C88100200079054944
:10B0E00000EBC00001EB80004069002800D0012087
:10B0F00070470000C88100202DE9F843DFF86C910B
:10B100000446818B8069D9F80420FCF7A7FB03274C
:10B11000574D012609F1180810B198F8000068B3DE
:10B12000A18BA069D9F80820FCF798FB18B198F812
:10B130000100002854D0A18BA069D9F80C20FCF79D
:10B140008DFB18B198F80200002864D0A18BA0698B
:10B15000D9F81020FCF782FB18B198F803000028FA
:10B160006CD04249203100208ADF00287BD0BDE826
:10B17000F84340A240F2BD11FBF74CB8D9F80400E7
:10B1800000902888A38B07EB00403EA1A269FEF740
:10B19000C6FE29884FF0050808EB01403FA1FEF7E5
:10B1A000ABFE002709E0A0692988C25D08EB0140D9
:10B1B0003DA1FEF7A5FE7F1CBFB2A08BB842F2D81E
:10B1C000298808EB01403AA1FEF796FE0021394A92
:10B1D0000123C9F8141002F10801A01C8CDF10E053
:10B1E0002888A26907EB00404F4633A1D9F8083000
:10B1F000FEF78DFE2F4A012302F10801A01C7E619B
:10B200008CDF02002FD028882EA106EB0040BDE87D
:10B21000F843FEF775BE2888A26907EB00404F4649
:10B2200025A1D9F80C30FEF772FE0220214A012335
:10B23000786102F10801A01C8CDFE2E72988B8469A
:10B2400007EB01404F46A2691BA1D9F81030FEF769
:10B250005EFE184A012302F10801A01CC7F8148001
:10B260008CDFCEE7FFE7BDE8F8830000986C002094
:10B27000607900202E2E5C2E2E5C2E2E5C6D616976
:10B280006E2E6300257820646174616C656E2025E4
:10B2900064204164763A2025730000006164765F83
:10B2A000646174613A200000253032783A00000071
:10B2B0000D0A000004C502002578204164763A207A
:10B2C00025730000436F6E6E656374696F6E205264
:10B2D000657175657374204661696C65642C2072B4
:10B2E0006561736F6E202564000000002DE9F84F42
:10B2F00005460C460888B5F8CA12884259D195F817
:10B30000C602DFF8F8A000EB8001C1EB801005EB6E
:10B31000400160884FF003094FF00008F0BBE68859
:10B320000879A21DF3B250FA86F6062E01D803441E
:10B3300000E006230B7100261CE000BF00EBC003F9
:10B3400006EB860702EB470701EB4303D7F802C081
:10B35000C3F80AC0D7F806C0C3F80EC07F895F8261
:10B36000A3F81480A3F81680A3F81880401CA3F853
:10B370001A80761C0B798342E0D895F8C62200EB40
:10B38000C00002EB8203C3EB821205EB420231F8EC
:10B390001000128990420ED2087900E00BE00628D6
:10B3A00009D085F8C50221882846FCF7D9FF01009D
:10B3B0000AD1BDE8F88F85F8C582228869462846FB
:10B3C000FDF7F0F801000BD085F8C78222882846E7
:10B3D000FDF7E6F98AF800902188AAF80210E8E75C
:10B3E0009DF800000028E4D0228801212846FDF7BE
:10B3F0008FF92188284600F053F9DAE78C7D002088
:10B4000070B58D88027900EBC5042273C97BA41D39
:10B41000012902D0022904D101E0008800E040881F
:10B4200020802188608881420FD92846A5DF012627
:10B43000A0B1112814D0FFF7E9F902460A480BA180
:10B44000008806EB0040FEF75BFDA179E0798142C0
:10B4500008D92846BDE87040FDF73CB86671F4E7AE
:10B460002671F2E770BD00002C79002073645F62E2
:10B470006C655F67617474635F65786368616E674C
:10B48000655F6D74755F72657175657374282920C9
:10B4900072657475726E65642025732E000000005D
:10B4A000F8B505460C460888B5F8CA1288425DD141
:10B4B00095F8C602A61D00EB8001C1EB801005EBDC
:10B4C000400395F8C502618800EBC00003EB400023
:10B4D0000A3039B329E000BF01EB410206EB42021A
:10B4E0009788B7F5245F0CD06FF4245C17EB0C073A
:10B4F0000AD0012F02D0072F0BD108E052884281D9
:10B5000007E05288828104E05288C28101E05288BB
:10B51000028242892AB182891AB1C2890AB1028A99
:10B520001AB9491C32888A42D6D800268DF80060A4
:10B5300095F8C5021979401C884203D101208DF885
:10B54000000018E085F8C502228869462846FDF704
:10B5500029F801000BD085F8C76222882846FDF73C
:10B560001FF90A480321017021884180F8BD9DF828
:10B5700000000028FAD0228801212846FDF7C8F8EB
:10B580002188284600F08CF8F8BD00008C7D002052
:10B590007CB506468D88C88806EBC504A41D17280F
:10B5A00000D217202188814200D808466080002000
:10B5B000207121882846B5DF50B1FFF727F90246F0
:10B5C0000E480121008801EB00400DA1FEF798FC18
:10B5D0006079002810D1B06A00280DD01449D1E953
:10B5E0000201CDE90001ADF802506088ADF8040019
:10B5F000B26A6946304690477CBD00002C79002035
:10B6000073645F626C655F67617474735F657863B0
:10B6100068616E67655F6D74755F7265706C7928BF
:10B62000292072657475726E65642025732E000082
:10B63000C8C5020070B505460C4690F8C6022288BF
:10B6400000EB8001C1EB801005EB4001B5F8CA02A8
:10B65000824222D1608848B100212846FDF758F87F
:10B6600021882846BDE8704000F01AB8A2680A6038
:10B67000E068C1F8060021882846FCF771FE010049
:10B680000BD0002085F8C70222882846FDF788F8ED
:10B690000248032101702188418070BD8C7D00200B
:10B6A0002DE9F041044690F8C9020E46401C1949A4
:10B6B000C0B284F8C902C9680327174D4FF0000EC5
:10B6C000884224D284F8C5E294F8C602401CC0B275
:10B6D00000EB8001C1EB801104EB410284F8C6024B
:10B6E000A5F1180101EB800001210068106082F8CB
:10B6F00004E030469BDF010007D084F8C7E2324601
:10B700002046FDF74DF82F706E80BDE8F08184F87B
:10B71000C7E2F8E70C7800208C7D0020044908443B
:10B7200090F93000082801DB0120704700207047A5
:10B73000408100200449084490F93000082801D2D3
:10B7400001207047002070474081002010B50C4652
:10B75000017A052908D0407A38B1084808A1026862
:10B760002046FDF7BDFF00E01AB106A12046FDF717
:10B77000B7FF2046BDE81040FDF7BFBFFC780020B2
:10B78000257300000D0A000038B5C3880D46044635
:10B7900033B114A0009015A216A12846FDF7A0FF12
:10B7A000217A05291CD0607A48B1A088FEF76EFA8C
:10B7B000164951F8202016A12846FDF791FFA088D0
:10B7C0000021FEF74FFC03461049207A143951F846
:10B7D000202001B02846BDE830400EA1FDF780BF13
:10B7E00038BD00001B5B306D000000001B5B313B6F
:10B7F00033316D0025734C6F67732064726F707006
:10B800006564202825642925730D0A00FC78002032
:10B81000257300003C25733E2025733A200000006C
:10B820000349884201D10348704700207047000057
:10B830000020004038780020034802490068FDF7E6
:10B840002BBD00009478002028C602002DE9F041AD
:10B85000234C0025234E207A012730B92248311D80
:10B860000068FDF724FD306038B102202072316895
:10B87000087928B101281ED116E06560BDE8F08185
:10B88000D1E90503C01A4FF48052904200D310460C
:10B89000B7EB900F01D2820800E001220869C96865
:10B8A0001844194429DF03E0D1E90301084428DFE3
:10B8B00058B1112812D003213068FDF73BF92572E9
:10B8C0006560BDE8F041FFF7B7BF207C0028D5D107
:10B8D000BDE8F04100210220FEF724B82772CDE731
:10B8E000D08300209078002028C6020070B50C4B51
:10B8F00000210A4ADC680DE002EB81058678AD780C
:10B90000B54206D132F821500688B54201D15868B7
:10B9100070BD491CA142EFD3002070BD747D002092
:10B920000C78002070B5012670044FF0E02100254E
:10B93000C1F88001084C4010C4F84803C4F808035B
:10B9400066602F20FEF7BCFFA660044C2F20A56088
:10B95000FEF7B6FFA57070BD0010014068780020AA
:10B96000002805D0042803D102480168491C016061
:10B97000704700000078002070B5054688690C46C5
:10B9800000284FF4847128460AD0FEF74EFFD5F800
:10B990001805626AE1688854606A401C606270BD84
:10B9A000FEF743FFD5F8180570BD1FB501238DF8CC
:10B9B0000030CDE90121D0E90012684690471FBD53
:10B9C0001FB501238DF800308DF808100192D0E9E1
:10B9D0000012684690471FBD10B5044600684FF43A
:10B9E0009271FEF722FF4FF484712068FEF71DFF6D
:10B9F00020680121016010BD10B58BDF09480321CB
:10BA0000008801EB004008494A6808A1FEF778FA6F
:10BA100005490F4820318ADFBDE810400020FCF7BF
:10BA200089BB000060790020986C0020537461721B
:10BA300074207363616E6E696E6720666F72206436
:10BA40006576696365206E616D652025732E000043
:10BA50000CC5020070B50D460446FBF77DF970B1C8
:10BA60002846FBF78BF968B16807000E002C0CDA4A
:10BA700004F00F0101F1E02181F8140D09E042F218
:10BA8000010070BD42F2020070BD04F1E02484F8B0
:10BA90000004002070BD000038B50021012548B128
:10BAA00001280CD0032809D1FEF7D6FEBDE83840A6
:10BAB000FDF7AABD4FF0E020C0F8805138BD8DF8E9
:10BAC00000106846FBF7FEFD064C207808B9FDF72C
:10BAD0007FFDE068401CE060A5709DF80000FBF76A
